{
  "_format": "hh-sol-artifact-1",
  "contractName": "deBBS",
  "sourceName": "contracts/deBBS.sol",
  "abi": [
    {
      "inputs": [],
      "stateMutability": "nonpayable",
      "type": "constructor"
    },
    {
      "anonymous": false,
      "inputs": [
        {
          "indexed": false,
          "internalType": "uint256",
          "name": "boardId",
          "type": "uint256"
        },
        {
          "indexed": false,
          "internalType": "address",
          "name": "boardOwner",
          "type": "address"
        },
        {
          "indexed": false,
          "internalType": "string",
          "name": "boardTitle",
          "type": "string"
        },
        {
          "indexed": false,
          "internalType": "string",
          "name": "description",
          "type": "string"
        },
        {
          "indexed": false,
          "internalType": "string",
          "name": "primaryColor",
          "type": "string"
        },
        {
          "indexed": false,
          "internalType": "string",
          "name": "bgColor",
          "type": "string"
        },
        {
          "indexed": false,
          "internalType": "uint256",
          "name": "timestamp",
          "type": "uint256"
        }
      ],
      "name": "BoardCreated",
      "type": "event"
    },
    {
      "anonymous": false,
      "inputs": [
        {
          "indexed": false,
          "internalType": "uint256",
          "name": "postIdFrom",
          "type": "uint256"
        },
        {
          "indexed": false,
          "internalType": "uint256",
          "name": "postIdTo",
          "type": "uint256"
        },
        {
          "indexed": false,
          "internalType": "address",
          "name": "mentionFrom",
          "type": "address"
        },
        {
          "indexed": false,
          "internalType": "address",
          "name": "mentionTo",
          "type": "address"
        },
        {
          "indexed": false,
          "internalType": "string",
          "name": "replyContent",
          "type": "string"
        },
        {
          "indexed": false,
          "internalType": "uint256",
          "name": "parentThreadId",
          "type": "uint256"
        },
        {
          "indexed": false,
          "internalType": "uint256",
          "name": "timestamp",
          "type": "uint256"
        }
      ],
      "name": "Mention",
      "type": "event"
    },
    {
      "anonymous": false,
      "inputs": [
        {
          "indexed": false,
          "internalType": "uint256",
          "name": "postId",
          "type": "uint256"
        },
        {
          "indexed": false,
          "internalType": "uint256",
          "name": "parentThreadId",
          "type": "uint256"
        },
        {
          "indexed": false,
          "internalType": "address",
          "name": "postOwner",
          "type": "address"
        },
        {
          "indexed": false,
          "internalType": "string",
          "name": "postContent",
          "type": "string"
        },
        {
          "indexed": false,
          "internalType": "uint256",
          "name": "timestamp",
          "type": "uint256"
        },
        {
          "indexed": false,
          "internalType": "bool",
          "name": "isDeleted",
          "type": "bool"
        },
        {
          "indexed": false,
          "internalType": "uint256",
          "name": "mentionTo",
          "type": "uint256"
        }
      ],
      "name": "PostCreated",
      "type": "event"
    },
    {
      "anonymous": false,
      "inputs": [
        {
          "indexed": false,
          "internalType": "uint256",
          "name": "threadId",
          "type": "uint256"
        },
        {
          "indexed": false,
          "internalType": "uint256",
          "name": "parentBoardId",
          "type": "uint256"
        },
        {
          "indexed": false,
          "internalType": "address",
          "name": "threadOwner",
          "type": "address"
        },
        {
          "indexed": false,
          "internalType": "string",
          "name": "threadTitle",
          "type": "string"
        },
        {
          "indexed": false,
          "internalType": "uint256",
          "name": "timestamp",
          "type": "uint256"
        }
      ],
      "name": "ThreadCreated",
      "type": "event"
    },
    {
      "inputs": [
        {
          "internalType": "uint256",
          "name": "threadId",
          "type": "uint256"
        },
        {
          "internalType": "address",
          "name": "targetUserToBan",
          "type": "address"
        }
      ],
      "name": "banUser",
      "outputs": [],
      "stateMutability": "nonpayable",
      "type": "function"
    },
    {
      "inputs": [
        {
          "internalType": "uint256",
          "name": "",
          "type": "uint256"
        },
        {
          "internalType": "uint256",
          "name": "",
          "type": "uint256"
        }
      ],
      "name": "boardToThreads",
      "outputs": [
        {
          "internalType": "uint256",
          "name": "",
          "type": "uint256"
        }
      ],
      "stateMutability": "view",
      "type": "function"
    },
    {
      "inputs": [
        {
          "internalType": "uint256",
          "name": "",
          "type": "uint256"
        }
      ],
      "name": "boards",
      "outputs": [
        {
          "internalType": "uint256",
          "name": "boardId",
          "type": "uint256"
        },
        {
          "internalType": "address",
          "name": "boardOwner",
          "type": "address"
        },
        {
          "internalType": "string",
          "name": "boardTitle",
          "type": "string"
        },
        {
          "internalType": "string",
          "name": "description",
          "type": "string"
        },
        {
          "internalType": "string",
          "name": "primaryColor",
          "type": "string"
        },
        {
          "internalType": "string",
          "name": "bgColor",
          "type": "string"
        },
        {
          "internalType": "uint256",
          "name": "timestamp",
          "type": "uint256"
        }
      ],
      "stateMutability": "view",
      "type": "function"
    },
    {
      "inputs": [
        {
          "internalType": "string",
          "name": "boardTitle",
          "type": "string"
        },
        {
          "internalType": "string",
          "name": "description",
          "type": "string"
        },
        {
          "internalType": "string",
          "name": "primaryColor",
          "type": "string"
        },
        {
          "internalType": "string",
          "name": "bgColor",
          "type": "string"
        },
        {
          "internalType": "address",
          "name": "frontendOwnerAddress",
          "type": "address"
        }
      ],
      "name": "createBoard",
      "outputs": [],
      "stateMutability": "payable",
      "type": "function"
    },
    {
      "inputs": [],
      "name": "createBoardFee",
      "outputs": [
        {
          "internalType": "uint256",
          "name": "",
          "type": "uint256"
        }
      ],
      "stateMutability": "view",
      "type": "function"
    },
    {
      "inputs": [
        {
          "internalType": "uint256",
          "name": "threadId",
          "type": "uint256"
        },
        {
          "internalType": "uint256",
          "name": "mentionTo",
          "type": "uint256"
        },
        {
          "internalType": "string",
          "name": "postContent",
          "type": "string"
        },
        {
          "internalType": "address",
          "name": "frontendOwnerAddress",
          "type": "address"
        }
      ],
      "name": "createPost",
      "outputs": [],
      "stateMutability": "payable",
      "type": "function"
    },
    {
      "inputs": [],
      "name": "createPostFee",
      "outputs": [
        {
          "internalType": "uint256",
          "name": "",
          "type": "uint256"
        }
      ],
      "stateMutability": "view",
      "type": "function"
    },
    {
      "inputs": [
        {
          "internalType": "uint256",
          "name": "boardId",
          "type": "uint256"
        },
        {
          "internalType": "string",
          "name": "threadTitle",
          "type": "string"
        },
        {
          "internalType": "address",
          "name": "frontendOwnerAddress",
          "type": "address"
        }
      ],
      "name": "createThread",
      "outputs": [],
      "stateMutability": "payable",
      "type": "function"
    },
    {
      "inputs": [],
      "name": "createThreadFee",
      "outputs": [
        {
          "internalType": "uint256",
          "name": "",
          "type": "uint256"
        }
      ],
      "stateMutability": "view",
      "type": "function"
    },
    {
      "inputs": [
        {
          "internalType": "uint256",
          "name": "postId",
          "type": "uint256"
        }
      ],
      "name": "deletePost",
      "outputs": [],
      "stateMutability": "nonpayable",
      "type": "function"
    },
    {
      "inputs": [
        {
          "internalType": "uint256",
          "name": "boardId",
          "type": "uint256"
        }
      ],
      "name": "getBoard",
      "outputs": [
        {
          "internalType": "uint256",
          "name": "",
          "type": "uint256"
        },
        {
          "internalType": "address",
          "name": "",
          "type": "address"
        },
        {
          "internalType": "string",
          "name": "",
          "type": "string"
        },
        {
          "internalType": "string",
          "name": "",
          "type": "string"
        },
        {
          "internalType": "string",
          "name": "",
          "type": "string"
        },
        {
          "internalType": "string",
          "name": "",
          "type": "string"
        },
        {
          "internalType": "uint256",
          "name": "",
          "type": "uint256"
        }
      ],
      "stateMutability": "view",
      "type": "function"
    },
    {
      "inputs": [],
      "name": "getBoards",
      "outputs": [
        {
          "components": [
            {
              "internalType": "uint256",
              "name": "boardId",
              "type": "uint256"
            },
            {
              "internalType": "address",
              "name": "boardOwner",
              "type": "address"
            },
            {
              "internalType": "string",
              "name": "boardTitle",
              "type": "string"
            },
            {
              "internalType": "string",
              "name": "description",
              "type": "string"
            },
            {
              "internalType": "string",
              "name": "primaryColor",
              "type": "string"
            },
            {
              "internalType": "string",
              "name": "bgColor",
              "type": "string"
            },
            {
              "internalType": "uint256",
              "name": "timestamp",
              "type": "uint256"
            }
          ],
          "internalType": "struct deBBS.Board[]",
          "name": "",
          "type": "tuple[]"
        }
      ],
      "stateMutability": "view",
      "type": "function"
    },
    {
      "inputs": [
        {
          "internalType": "uint256",
          "name": "postId",
          "type": "uint256"
        }
      ],
      "name": "getPost",
      "outputs": [
        {
          "internalType": "uint256",
          "name": "",
          "type": "uint256"
        },
        {
          "internalType": "uint256",
          "name": "",
          "type": "uint256"
        },
        {
          "internalType": "address",
          "name": "",
          "type": "address"
        },
        {
          "internalType": "string",
          "name": "",
          "type": "string"
        },
        {
          "internalType": "uint256",
          "name": "",
          "type": "uint256"
        },
        {
          "internalType": "bool",
          "name": "",
          "type": "bool"
        },
        {
          "internalType": "uint256",
          "name": "",
          "type": "uint256"
        }
      ],
      "stateMutability": "view",
      "type": "function"
    },
    {
      "inputs": [
        {
          "internalType": "uint256",
          "name": "threadId",
          "type": "uint256"
        }
      ],
      "name": "getPostsByThread",
      "outputs": [
        {
          "components": [
            {
              "internalType": "uint256",
              "name": "postId",
              "type": "uint256"
            },
            {
              "internalType": "uint256",
              "name": "parentThreadId",
              "type": "uint256"
            },
            {
              "internalType": "address",
              "name": "postOwner",
              "type": "address"
            },
            {
              "internalType": "string",
              "name": "postContent",
              "type": "string"
            },
            {
              "internalType": "uint256",
              "name": "timestamp",
              "type": "uint256"
            },
            {
              "internalType": "bool",
              "name": "isDeleted",
              "type": "bool"
            },
            {
              "internalType": "uint256",
              "name": "mentionTo",
              "type": "uint256"
            }
          ],
          "internalType": "struct deBBS.Post[]",
          "name": "",
          "type": "tuple[]"
        }
      ],
      "stateMutability": "view",
      "type": "function"
    },
    {
      "inputs": [],
      "name": "getPostsCount",
      "outputs": [
        {
          "internalType": "uint256",
          "name": "",
          "type": "uint256"
        }
      ],
      "stateMutability": "view",
      "type": "function"
    },
    {
      "inputs": [
        {
          "internalType": "uint256",
          "name": "threadId",
          "type": "uint256"
        }
      ],
      "name": "getPostsCountByThread",
      "outputs": [
        {
          "internalType": "uint256",
          "name": "",
          "type": "uint256"
        }
      ],
      "stateMutability": "view",
      "type": "function"
    },
    {
      "inputs": [
        {
          "internalType": "uint256",
          "name": "threadId",
          "type": "uint256"
        }
      ],
      "name": "getThread",
      "outputs": [
        {
          "internalType": "uint256",
          "name": "",
          "type": "uint256"
        },
        {
          "internalType": "uint256",
          "name": "",
          "type": "uint256"
        },
        {
          "internalType": "address",
          "name": "",
          "type": "address"
        },
        {
          "internalType": "string",
          "name": "",
          "type": "string"
        },
        {
          "internalType": "uint256",
          "name": "",
          "type": "uint256"
        },
        {
          "internalType": "address[]",
          "name": "",
          "type": "address[]"
        }
      ],
      "stateMutability": "view",
      "type": "function"
    },
    {
      "inputs": [
        {
          "internalType": "uint256",
          "name": "boardId",
          "type": "uint256"
        }
      ],
      "name": "getThreadsByBoard",
      "outputs": [
        {
          "components": [
            {
              "internalType": "uint256",
              "name": "threadId",
              "type": "uint256"
            },
            {
              "internalType": "uint256",
              "name": "parentBoardId",
              "type": "uint256"
            },
            {
              "internalType": "address",
              "name": "threadOwner",
              "type": "address"
            },
            {
              "internalType": "string",
              "name": "threadTitle",
              "type": "string"
            },
            {
              "internalType": "uint256",
              "name": "timestamp",
              "type": "uint256"
            },
            {
              "internalType": "address[]",
              "name": "bannedUsers",
              "type": "address[]"
            }
          ],
          "internalType": "struct deBBS.Thread[]",
          "name": "",
          "type": "tuple[]"
        }
      ],
      "stateMutability": "view",
      "type": "function"
    },
    {
      "inputs": [
        {
          "internalType": "uint256",
          "name": "boardId",
          "type": "uint256"
        }
      ],
      "name": "getThreadsCountByBoard",
      "outputs": [
        {
          "internalType": "uint256",
          "name": "",
          "type": "uint256"
        }
      ],
      "stateMutability": "view",
      "type": "function"
    },
    {
      "inputs": [
        {
          "internalType": "uint256",
          "name": "threadId",
          "type": "uint256"
        },
        {
          "internalType": "address",
          "name": "userAddress",
          "type": "address"
        }
      ],
      "name": "isAddressBanned",
      "outputs": [
        {
          "internalType": "bool",
          "name": "",
          "type": "bool"
        }
      ],
      "stateMutability": "view",
      "type": "function"
    },
    {
      "inputs": [
        {
          "internalType": "uint256",
          "name": "",
          "type": "uint256"
        }
      ],
      "name": "posts",
      "outputs": [
        {
          "internalType": "uint256",
          "name": "postId",
          "type": "uint256"
        },
        {
          "internalType": "uint256",
          "name": "parentThreadId",
          "type": "uint256"
        },
        {
          "internalType": "address",
          "name": "postOwner",
          "type": "address"
        },
        {
          "internalType": "string",
          "name": "postContent",
          "type": "string"
        },
        {
          "internalType": "uint256",
          "name": "timestamp",
          "type": "uint256"
        },
        {
          "internalType": "bool",
          "name": "isDeleted",
          "type": "bool"
        },
        {
          "internalType": "uint256",
          "name": "mentionTo",
          "type": "uint256"
        }
      ],
      "stateMutability": "view",
      "type": "function"
    },
    {
      "inputs": [
        {
          "internalType": "uint256",
          "name": "",
          "type": "uint256"
        },
        {
          "internalType": "uint256",
          "name": "",
          "type": "uint256"
        }
      ],
      "name": "threadToPosts",
      "outputs": [
        {
          "internalType": "uint256",
          "name": "",
          "type": "uint256"
        }
      ],
      "stateMutability": "view",
      "type": "function"
    },
    {
      "inputs": [
        {
          "internalType": "uint256",
          "name": "",
          "type": "uint256"
        }
      ],
      "name": "threads",
      "outputs": [
        {
          "internalType": "uint256",
          "name": "threadId",
          "type": "uint256"
        },
        {
          "internalType": "uint256",
          "name": "parentBoardId",
          "type": "uint256"
        },
        {
          "internalType": "address",
          "name": "threadOwner",
          "type": "address"
        },
        {
          "internalType": "string",
          "name": "threadTitle",
          "type": "string"
        },
        {
          "internalType": "uint256",
          "name": "timestamp",
          "type": "uint256"
        }
      ],
      "stateMutability": "view",
      "type": "function"
    }
  ],
  "bytecode": "0x6080604052348015600f57600080fd5b50662386f26fc1000060038190555066038d7ea4c68000600481905550655af3107a400060058190555061451f806100486000396000f3fe6080604052600436106101405760003560e01c806369e8a048116100b65780639a7083f91161006f5780639a7083f9146104965780639eb11dea146104d9578063d11df97614610516578063da756dcb14610553578063ecc54caf14610590578063f552b2ba146105bb57610140565b806369e8a0481461036f578063750607dd1461039857806379b20b03146103d55780637e27f49f14610412578063836248821461044f57806389f191231461047a57610140565b8063368f1e2311610108578063368f1e231461024457806340731c241461028657806342b9edea146102c957806345e09e54146102f45780635d951300146103375780635f35624e1461035357610140565b8063094cd5ee146101455780630b1e7f831461016e5780631198d6e0146101b157806315aa0a50146101dc578063234e200d14610207575b600080fd5b34801561015157600080fd5b5061016c60048036038101906101679190612e0e565b6105fc565b005b34801561017a57600080fd5b5061019560048036038101906101909190612e0e565b6107e9565b6040516101a89796959493929190612f36565b60405180910390f35b3480156101bd57600080fd5b506101c66108f0565b6040516101d39190612fac565b60405180910390f35b3480156101e857600080fd5b506101f16108f6565b6040516101fe91906131a2565b60405180910390f35b34801561021357600080fd5b5061022e600480360381019061022991906131c4565b610c07565b60405161023b9190612fac565b60405180910390f35b34801561025057600080fd5b5061026b60048036038101906102669190612e0e565b610c38565b60405161027d969594939291906132b3565b60405180910390f35b34801561029257600080fd5b506102ad60048036038101906102a89190612e0e565b610e3c565b6040516102c09796959493929190612f36565b60405180910390f35b3480156102d557600080fd5b506102de610fe0565b6040516102eb9190612fac565b60405180910390f35b34801561030057600080fd5b5061031b60048036038101906103169190612e0e565b610fe6565b60405161032e9796959493929190613322565b60405180910390f35b610351600480360381019061034c919061350e565b611310565b005b61036d60048036038101906103689190613591565b611675565b005b34801561037b57600080fd5b506103966004803603810190610391919061367c565b61183f565b005b3480156103a457600080fd5b506103bf60048036038101906103ba919061367c565b6119cc565b6040516103cc91906136bc565b60405180910390f35b3480156103e157600080fd5b506103fc60048036038101906103f79190612e0e565b611c18565b6040516104099190613844565b60405180910390f35b34801561041e57600080fd5b5061043960048036038101906104349190612e0e565b611e93565b6040516104469190612fac565b60405180910390f35b34801561045b57600080fd5b50610464611eb3565b6040516104719190612fac565b60405180910390f35b610494600480360381019061048f9190613866565b611ec0565b005b3480156104a257600080fd5b506104bd60048036038101906104b89190612e0e565b61212f565b6040516104d09796959493929190613322565b60405180910390f35b3480156104e557600080fd5b5061050060048036038101906104fb9190612e0e565b6123c1565b60405161050d9190612fac565b60405180910390f35b34801561052257600080fd5b5061053d60048036038101906105389190612e0e565b6123e1565b60405161054a9190613a96565b60405180910390f35b34801561055f57600080fd5b5061057a600480360381019061057591906131c4565b6126c5565b6040516105879190612fac565b60405180910390f35b34801561059c57600080fd5b506105a56126f6565b6040516105b29190612fac565b60405180910390f35b3480156105c757600080fd5b506105e260048036038101906105dd9190612e0e565b6126fc565b6040516105f3959493929190613ab8565b60405180910390f35b6002805490508110610643576040517f08c379a000000000000000000000000000000000000000000000000000000000815260040161063a90613b5e565b60405180910390fd5b60006002828154811061065957610658613b7e565b5b906000526020600020906007020160020160009054906101000a900473ffffffffffffffffffffffffffffffffffffffff1690506000600283815481106106a3576106a2613b7e565b5b90600052602060002090600702016001015490506000600182815481106106cd576106cc613b7e565b5b906000526020600020906006020160020160009054906101000a900473ffffffffffffffffffffffffffffffffffffffff1690508273ffffffffffffffffffffffffffffffffffffffff163373ffffffffffffffffffffffffffffffffffffffff16148061076657508073ffffffffffffffffffffffffffffffffffffffff163373ffffffffffffffffffffffffffffffffffffffff16145b6107a5576040517f08c379a000000000000000000000000000000000000000000000000000000000815260040161079c90613c1f565b60405180910390fd5b6001600285815481106107bb576107ba613b7e565b5b906000526020600020906007020160050160006101000a81548160ff02191690831515021790555050505050565b600281815481106107f957600080fd5b90600052602060002090600702016000915090508060000154908060010154908060020160009054906101000a900473ffffffffffffffffffffffffffffffffffffffff169080600301805461084e90613c6e565b80601f016020809104026020016040519081016040528092919081815260200182805461087a90613c6e565b80156108c75780601f1061089c576101008083540402835291602001916108c7565b820191906000526020600020905b8154815290600101906020018083116108aa57829003601f168201915b5050505050908060040154908060050160009054906101000a900460ff16908060060154905087565b60035481565b60606000805480602002602001604051908101604052809291908181526020016000905b82821015610bfe57838290600052602060002090600702016040518060e0016040529081600082015481526020016001820160009054906101000a900473ffffffffffffffffffffffffffffffffffffffff1673ffffffffffffffffffffffffffffffffffffffff1673ffffffffffffffffffffffffffffffffffffffff1681526020016002820180546109ad90613c6e565b80601f01602080910402602001604051908101604052809291908181526020018280546109d990613c6e565b8015610a265780601f106109fb57610100808354040283529160200191610a26565b820191906000526020600020905b815481529060010190602001808311610a0957829003601f168201915b50505050508152602001600382018054610a3f90613c6e565b80601f0160208091040260200160405190810160405280929190818152602001828054610a6b90613c6e565b8015610ab85780601f10610a8d57610100808354040283529160200191610ab8565b820191906000526020600020905b815481529060010190602001808311610a9b57829003601f168201915b50505050508152602001600482018054610ad190613c6e565b80601f0160208091040260200160405190810160405280929190818152602001828054610afd90613c6e565b8015610b4a5780601f10610b1f57610100808354040283529160200191610b4a565b820191906000526020600020905b815481529060010190602001808311610b2d57829003601f168201915b50505050508152602001600582018054610b6390613c6e565b80601f0160208091040260200160405190810160405280929190818152602001828054610b8f90613c6e565b8015610bdc5780601f10610bb157610100808354040283529160200191610bdc565b820191906000526020600020905b815481529060010190602001808311610bbf57829003601f168201915b505050505081526020016006820154815250508152602001906001019061091a565b50505050905090565b60066020528160005260406000208181548110610c2357600080fd5b90600052602060002001600091509150505481565b6000806000606060006060600060018881548110610c5957610c58613b7e565b5b90600052602060002090600602016040518060c001604052908160008201548152602001600182015481526020016002820160009054906101000a900473ffffffffffffffffffffffffffffffffffffffff1673ffffffffffffffffffffffffffffffffffffffff1673ffffffffffffffffffffffffffffffffffffffff168152602001600382018054610cec90613c6e565b80601f0160208091040260200160405190810160405280929190818152602001828054610d1890613c6e565b8015610d655780601f10610d3a57610100808354040283529160200191610d65565b820191906000526020600020905b815481529060010190602001808311610d4857829003601f168201915b505050505081526020016004820154815260200160058201805480602002602001604051908101604052809291908181526020018280548015610dfd57602002820191906000526020600020905b8160009054906101000a900473ffffffffffffffffffffffffffffffffffffffff1673ffffffffffffffffffffffffffffffffffffffff1681526020019060010190808311610db3575b5050505050815250509050806000015181602001518260400151836060015184608001518560a001519650965096509650965096505091939550919395565b6000806000606060008060008060028981548110610e5d57610e5c613b7e565b5b90600052602060002090600702016040518060e001604052908160008201548152602001600182015481526020016002820160009054906101000a900473ffffffffffffffffffffffffffffffffffffffff1673ffffffffffffffffffffffffffffffffffffffff1673ffffffffffffffffffffffffffffffffffffffff168152602001600382018054610ef090613c6e565b80601f0160208091040260200160405190810160405280929190818152602001828054610f1c90613c6e565b8015610f695780601f10610f3e57610100808354040283529160200191610f69565b820191906000526020600020905b815481529060010190602001808311610f4c57829003601f168201915b50505050508152602001600482015481526020016005820160009054906101000a900460ff161515151581526020016006820154815250509050806000015181602001518260400151836060015184608001518560a001518660c00151975097509750975097509750975050919395979092949650565b60055481565b6000806060806060806000806000898154811061100657611005613b7e565b5b90600052602060002090600702016040518060e0016040529081600082015481526020016001820160009054906101000a900473ffffffffffffffffffffffffffffffffffffffff1673ffffffffffffffffffffffffffffffffffffffff1673ffffffffffffffffffffffffffffffffffffffff16815260200160028201805461108f90613c6e565b80601f01602080910402602001604051908101604052809291908181526020018280546110bb90613c6e565b80156111085780601f106110dd57610100808354040283529160200191611108565b820191906000526020600020905b8154815290600101906020018083116110eb57829003601f168201915b5050505050815260200160038201805461112190613c6e565b80601f016020809104026020016040519081016040528092919081815260200182805461114d90613c6e565b801561119a5780601f1061116f5761010080835404028352916020019161119a565b820191906000526020600020905b81548152906001019060200180831161117d57829003601f168201915b505050505081526020016004820180546111b390613c6e565b80601f01602080910402602001604051908101604052809291908181526020018280546111df90613c6e565b801561122c5780601f106112015761010080835404028352916020019161122c565b820191906000526020600020905b81548152906001019060200180831161120f57829003601f168201915b5050505050815260200160058201805461124590613c6e565b80601f016020809104026020016040519081016040528092919081815260200182805461127190613c6e565b80156112be5780601f10611293576101008083540402835291602001916112be565b820191906000526020600020905b8154815290600101906020018083116112a157829003601f168201915b505050505081526020016006820154815250509050806000015181602001518260400151836060015184608001518560a001518660c00151975097509750975097509750975050919395979092949650565b6001805490508410611357576040517f08c379a000000000000000000000000000000000000000000000000000000000815260040161134e90613ceb565b60405180910390fd5b6000151561136585336119cc565b1515146113a7576040517f08c379a000000000000000000000000000000000000000000000000000000000815260040161139e90613d57565b60405180910390fd5b60055434146113eb576040517f08c379a00000000000000000000000000000000000000000000000000000000081526004016113e290613de9565b60405180910390fd5b6000600280549050905080841115611438576040517f08c379a000000000000000000000000000000000000000000000000000000000815260040161142f90613e55565b60405180910390fd5b60026040518060e001604052808381526020018781526020013373ffffffffffffffffffffffffffffffffffffffff168152602001858152602001428152602001600015158152602001868152509080600181540180825580915050600190039060005260206000209060070201600090919091909150600082015181600001556020820151816001015560408201518160020160006101000a81548173ffffffffffffffffffffffffffffffffffffffff021916908373ffffffffffffffffffffffffffffffffffffffff160217905550606082015181600301908161151f9190614021565b506080820151816004015560a08201518160050160006101000a81548160ff02191690831515021790555060c0820151816006015550506007600086815260200190815260200160002081908060018154018082558091505060019003906000526020600020016000909190919091505561159a85836127ea565b7faab91cf35a1ffffe2e2adb2cc625c340f872104cba6b3c5c9b5cd8c718fafeff818633864260008a6040516115d69796959493929190612f36565b60405180910390a180841461166e577fa2307687b812b19bf8c765c6e87b81fb212ae53f21c9804a6a3196977bc807da8185336002888154811061161d5761161c613b7e565b5b906000526020600020906007020160020160009054906101000a900473ffffffffffffffffffffffffffffffffffffffff16878a4260405161166597969594939291906140f3565b60405180910390a15b5050505050565b60035434146116b9576040517f08c379a00000000000000000000000000000000000000000000000000000000081526004016116b0906141db565b60405180910390fd5b60008080549050905060006040518060e001604052808381526020013373ffffffffffffffffffffffffffffffffffffffff1681526020018881526020018781526020018681526020018581526020014281525090806001815401808255809150506001900390600052602060002090600702016000909190919091506000820151816000015560208201518160010160006101000a81548173ffffffffffffffffffffffffffffffffffffffff021916908373ffffffffffffffffffffffffffffffffffffffff160217905550604082015181600201908161179c9190614021565b5060608201518160030190816117b29190614021565b5060808201518160040190816117c89190614021565b5060a08201518160050190816117de9190614021565b5060c0820151816006015550506117f482612a2d565b7fe761943c935b23f1639e084a905cf38f92f11a61b752da01aecc78276f2ceef68133888888884260405161182f9796959493929190613322565b60405180910390a1505050505050565b6001828154811061185357611852613b7e565b5b906000526020600020906006020160020160009054906101000a900473ffffffffffffffffffffffffffffffffffffffff1673ffffffffffffffffffffffffffffffffffffffff163373ffffffffffffffffffffffffffffffffffffffff16146118f2576040517f08c379a00000000000000000000000000000000000000000000000000000000081526004016118e99061426d565b60405180910390fd5b6000151561190083836119cc565b151514611942576040517f08c379a0000000000000000000000000000000000000000000000000000000008152600401611939906142d9565b60405180910390fd5b6001828154811061195657611955613b7e565b5b9060005260206000209060060201600501819080600181540180825580915050600190039060005260206000200160009091909190916101000a81548173ffffffffffffffffffffffffffffffffffffffff021916908373ffffffffffffffffffffffffffffffffffffffff1602179055505050565b600080600184815481106119e3576119e2613b7e565b5b90600052602060002090600602016040518060c001604052908160008201548152602001600182015481526020016002820160009054906101000a900473ffffffffffffffffffffffffffffffffffffffff1673ffffffffffffffffffffffffffffffffffffffff1673ffffffffffffffffffffffffffffffffffffffff168152602001600382018054611a7690613c6e565b80601f0160208091040260200160405190810160405280929190818152602001828054611aa290613c6e565b8015611aef5780601f10611ac457610100808354040283529160200191611aef565b820191906000526020600020905b815481529060010190602001808311611ad257829003601f168201915b505050505081526020016004820154815260200160058201805480602002602001604051908101604052809291908181526020018280548015611b8757602002820191906000526020600020905b8160009054906101000a900473ffffffffffffffffffffffffffffffffffffffff1673ffffffffffffffffffffffffffffffffffffffff1681526020019060010190808311611b3d575b505050505081525050905060005b8160a0015151811015611c0b578373ffffffffffffffffffffffffffffffffffffffff168260a001518281518110611bd057611bcf613b7e565b5b602002602001015173ffffffffffffffffffffffffffffffffffffffff1603611bfe57600192505050611c12565b8080600101915050611b95565b5060009150505b92915050565b6060600060076000848152602001908152602001600020805480602002602001604051908101604052809291908181526020018280548015611c7957602002820191906000526020600020905b815481526020019060010190808311611c65575b505050505090506000815167ffffffffffffffff811115611c9d57611c9c6133b7565b5b604051908082528060200260200182016040528015611cd657816020015b611cc3612c7c565b815260200190600190039081611cbb5790505b50905060005b8251811015611e885760006002848381518110611cfc57611cfb613b7e565b5b602002602001015181548110611d1557611d14613b7e565b5b90600052602060002090600702016040518060e001604052908160008201548152602001600182015481526020016002820160009054906101000a900473ffffffffffffffffffffffffffffffffffffffff1673ffffffffffffffffffffffffffffffffffffffff1673ffffffffffffffffffffffffffffffffffffffff168152602001600382018054611da890613c6e565b80601f0160208091040260200160405190810160405280929190818152602001828054611dd490613c6e565b8015611e215780601f10611df657610100808354040283529160200191611e21565b820191906000526020600020905b815481529060010190602001808311611e0457829003601f168201915b50505050508152602001600482015481526020016005820160009054906101000a900460ff16151515158152602001600682015481525050905080838381518110611e6f57611e6e613b7e565b5b6020026020010181905250508080600101915050611cdc565b508092505050919050565b600060076000838152602001908152602001600020805490509050919050565b6000600280549050905090565b6000805490508310611f07576040517f08c379a0000000000000000000000000000000000000000000000000000000008152600401611efe90614345565b60405180910390fd5b6004543414611f4b576040517f08c379a0000000000000000000000000000000000000000000000000000000008152600401611f42906143d7565b60405180910390fd5b6000600180549050905060016040518060c001604052808381526020018681526020013373ffffffffffffffffffffffffffffffffffffffff168152602001858152602001428152602001600067ffffffffffffffff811115611fb157611fb06133b7565b5b604051908082528060200260200182016040528015611fdf5781602001602082028036833780820191505090505b508152509080600181540180825580915050600190039060005260206000209060060201600090919091909150600082015181600001556020820151816001015560408201518160020160006101000a81548173ffffffffffffffffffffffffffffffffffffffff021916908373ffffffffffffffffffffffffffffffffffffffff160217905550606082015181600301908161207c9190614021565b506080820151816004015560a08201518160050190805190602001906120a3929190612cd1565b505050600660008581526020019081526020016000208190806001815401808255809150506001900390600052602060002001600090919091909150556120ea8483612b05565b7f569bc492504f217736f82024c1f4e32c2ab4081fefaf65e5e3b19a3f04564f5e8185338642604051612121959493929190613ab8565b60405180910390a150505050565b6000818154811061213f57600080fd5b90600052602060002090600702016000915090508060000154908060010160009054906101000a900473ffffffffffffffffffffffffffffffffffffffff169080600201805461218e90613c6e565b80601f01602080910402602001604051908101604052809291908181526020018280546121ba90613c6e565b80156122075780601f106121dc57610100808354040283529160200191612207565b820191906000526020600020905b8154815290600101906020018083116121ea57829003601f168201915b50505050509080600301805461221c90613c6e565b80601f016020809104026020016040519081016040528092919081815260200182805461224890613c6e565b80156122955780601f1061226a57610100808354040283529160200191612295565b820191906000526020600020905b81548152906001019060200180831161227857829003601f168201915b5050505050908060040180546122aa90613c6e565b80601f01602080910402602001604051908101604052809291908181526020018280546122d690613c6e565b80156123235780601f106122f857610100808354040283529160200191612323565b820191906000526020600020905b81548152906001019060200180831161230657829003601f168201915b50505050509080600501805461233890613c6e565b80601f016020809104026020016040519081016040528092919081815260200182805461236490613c6e565b80156123b15780601f10612386576101008083540402835291602001916123b1565b820191906000526020600020905b81548152906001019060200180831161239457829003601f168201915b5050505050908060060154905087565b600060066000838152602001908152602001600020805490509050919050565b606060006006600084815260200190815260200160002080548060200260200160405190810160405280929190818152602001828054801561244257602002820191906000526020600020905b81548152602001906001019080831161242e575b505050505090506000815167ffffffffffffffff811115612466576124656133b7565b5b60405190808252806020026020018201604052801561249f57816020015b61248c612d5b565b8152602001906001900390816124845790505b50905060005b82518110156126ba57600060018483815181106124c5576124c4613b7e565b5b6020026020010151815481106124de576124dd613b7e565b5b90600052602060002090600602016040518060c001604052908160008201548152602001600182015481526020016002820160009054906101000a900473ffffffffffffffffffffffffffffffffffffffff1673ffffffffffffffffffffffffffffffffffffffff1673ffffffffffffffffffffffffffffffffffffffff16815260200160038201805461257190613c6e565b80601f016020809104026020016040519081016040528092919081815260200182805461259d90613c6e565b80156125ea5780601f106125bf576101008083540402835291602001916125ea565b820191906000526020600020905b8154815290600101906020018083116125cd57829003601f168201915b50505050508152602001600482015481526020016005820180548060200260200160405190810160405280929190818152602001828054801561268257602002820191906000526020600020905b8160009054906101000a900473ffffffffffffffffffffffffffffffffffffffff1673ffffffffffffffffffffffffffffffffffffffff1681526020019060010190808311612638575b5050505050815250509050808383815181106126a1576126a0613b7e565b5b60200260200101819052505080806001019150506124a5565b508092505050919050565b600760205281600052604060002081815481106126e157600080fd5b90600052602060002001600091509150505481565b60045481565b6001818154811061270c57600080fd5b90600052602060002090600602016000915090508060000154908060010154908060020160009054906101000a900473ffffffffffffffffffffffffffffffffffffffff169080600301805461276190613c6e565b80601f016020809104026020016040519081016040528092919081815260200182805461278d90613c6e565b80156127da5780601f106127af576101008083540402835291602001916127da565b820191906000526020600020905b8154815290600101906020018083116127bd57829003601f168201915b5050505050908060040154905085565b47600554111561282f576040517f08c379a000000000000000000000000000000000000000000000000000000000815260040161282690614469565b60405180910390fd5b60006001838154811061284557612844613b7e565b5b9060005260206000209060060201600101549050600080828154811061286e5761286d613b7e565b5b906000526020600020906007020160010160009054906101000a900473ffffffffffffffffffffffffffffffffffffffff1690508073ffffffffffffffffffffffffffffffffffffffff166108fc60046005546128cb91906144b8565b9081150290604051600060405180830381858888f193505050501580156128f6573d6000803e3d6000fd5b5060006001858154811061290d5761290c613b7e565b5b906000526020600020906006020160020160009054906101000a900473ffffffffffffffffffffffffffffffffffffffff1690508073ffffffffffffffffffffffffffffffffffffffff166108fc600460055461296a91906144b8565b9081150290604051600060405180830381858888f19350505050158015612995573d6000803e3d6000fd5b50600073ffffffffffffffffffffffffffffffffffffffff168473ffffffffffffffffffffffffffffffffffffffff1614612a265760008490508073ffffffffffffffffffffffffffffffffffffffff166108fc60046005546129f891906144b8565b9081150290604051600060405180830381858888f19350505050158015612a23573d6000803e3d6000fd5b50505b5050505050565b476003541115612a72576040517f08c379a0000000000000000000000000000000000000000000000000000000008152600401612a6990614469565b60405180910390fd5b600073ffffffffffffffffffffffffffffffffffffffff168173ffffffffffffffffffffffffffffffffffffffff1614612b025760008190508073ffffffffffffffffffffffffffffffffffffffff166108fc6004600354612ad491906144b8565b9081150290604051600060405180830381858888f19350505050158015612aff573d6000803e3d6000fd5b50505b50565b476004541115612b4a576040517f08c379a0000000000000000000000000000000000000000000000000000000008152600401612b4190614469565b60405180910390fd5b6000808381548110612b5f57612b5e613b7e565b5b906000526020600020906007020160010160009054906101000a900473ffffffffffffffffffffffffffffffffffffffff1690508073ffffffffffffffffffffffffffffffffffffffff166108fc6002600454612bbc91906144b8565b9081150290604051600060405180830381858888f19350505050158015612be7573d6000803e3d6000fd5b50600073ffffffffffffffffffffffffffffffffffffffff168273ffffffffffffffffffffffffffffffffffffffff1614612c775760008290508073ffffffffffffffffffffffffffffffffffffffff166108fc60048054612c4991906144b8565b9081150290604051600060405180830381858888f19350505050158015612c74573d6000803e3d6000fd5b50505b505050565b6040518060e001604052806000815260200160008152602001600073ffffffffffffffffffffffffffffffffffffffff1681526020016060815260200160008152602001600015158152602001600081525090565b828054828255906000526020600020908101928215612d4a579160200282015b82811115612d495782518260006101000a81548173ffffffffffffffffffffffffffffffffffffffff021916908373ffffffffffffffffffffffffffffffffffffffff16021790555091602001919060010190612cf1565b5b509050612d579190612da7565b5090565b6040518060c001604052806000815260200160008152602001600073ffffffffffffffffffffffffffffffffffffffff1681526020016060815260200160008152602001606081525090565b5b80821115612dc0576000816000905550600101612da8565b5090565b6000604051905090565b600080fd5b600080fd5b6000819050919050565b612deb81612dd8565b8114612df657600080fd5b50565b600081359050612e0881612de2565b92915050565b600060208284031215612e2457612e23612dce565b5b6000612e3284828501612df9565b91505092915050565b612e4481612dd8565b82525050565b600073ffffffffffffffffffffffffffffffffffffffff82169050919050565b6000612e7582612e4a565b9050919050565b612e8581612e6a565b82525050565b600081519050919050565b600082825260208201905092915050565b60005b83811015612ec5578082015181840152602081019050612eaa565b60008484015250505050565b6000601f19601f8301169050919050565b6000612eed82612e8b565b612ef78185612e96565b9350612f07818560208601612ea7565b612f1081612ed1565b840191505092915050565b60008115159050919050565b612f3081612f1b565b82525050565b600060e082019050612f4b600083018a612e3b565b612f586020830189612e3b565b612f656040830188612e7c565b8181036060830152612f778187612ee2565b9050612f866080830186612e3b565b612f9360a0830185612f27565b612fa060c0830184612e3b565b98975050505050505050565b6000602082019050612fc16000830184612e3b565b92915050565b600081519050919050565b600082825260208201905092915050565b6000819050602082019050919050565b612ffc81612dd8565b82525050565b61300b81612e6a565b82525050565b600082825260208201905092915050565b600061302d82612e8b565b6130378185613011565b9350613047818560208601612ea7565b61305081612ed1565b840191505092915050565b600060e0830160008301516130736000860182612ff3565b5060208301516130866020860182613002565b506040830151848203604086015261309e8282613022565b915050606083015184820360608601526130b88282613022565b915050608083015184820360808601526130d28282613022565b91505060a083015184820360a08601526130ec8282613022565b91505060c083015161310160c0860182612ff3565b508091505092915050565b6000613118838361305b565b905092915050565b6000602082019050919050565b600061313882612fc7565b6131428185612fd2565b93508360208202850161315485612fe3565b8060005b858110156131905784840389528151613171858261310c565b945061317c83613120565b925060208a01995050600181019050613158565b50829750879550505050505092915050565b600060208201905081810360008301526131bc818461312d565b905092915050565b600080604083850312156131db576131da612dce565b5b60006131e985828601612df9565b92505060206131fa85828601612df9565b9150509250929050565b600081519050919050565b600082825260208201905092915050565b6000819050602082019050919050565b600061323c8383613002565b60208301905092915050565b6000602082019050919050565b600061326082613204565b61326a818561320f565b935061327583613220565b8060005b838110156132a657815161328d8882613230565b975061329883613248565b925050600181019050613279565b5085935050505092915050565b600060c0820190506132c86000830189612e3b565b6132d56020830188612e3b565b6132e26040830187612e7c565b81810360608301526132f48186612ee2565b90506133036080830185612e3b565b81810360a08301526133158184613255565b9050979650505050505050565b600060e082019050613337600083018a612e3b565b6133446020830189612e7c565b81810360408301526133568188612ee2565b9050818103606083015261336a8187612ee2565b9050818103608083015261337e8186612ee2565b905081810360a08301526133928185612ee2565b90506133a160c0830184612e3b565b98975050505050505050565b600080fd5b600080fd5b7f4e487b7100000000000000000000000000000000000000000000000000000000600052604160045260246000fd5b6133ef82612ed1565b810181811067ffffffffffffffff8211171561340e5761340d6133b7565b5b80604052505050565b6000613421612dc4565b905061342d82826133e6565b919050565b600067ffffffffffffffff82111561344d5761344c6133b7565b5b61345682612ed1565b9050602081019050919050565b82818337600083830152505050565b600061348561348084613432565b613417565b9050828152602081018484840111156134a1576134a06133b2565b5b6134ac848285613463565b509392505050565b600082601f8301126134c9576134c86133ad565b5b81356134d9848260208601613472565b91505092915050565b6134eb81612e6a565b81146134f657600080fd5b50565b600081359050613508816134e2565b92915050565b6000806000806080858703121561352857613527612dce565b5b600061353687828801612df9565b945050602061354787828801612df9565b935050604085013567ffffffffffffffff81111561356857613567612dd3565b5b613574878288016134b4565b9250506060613585878288016134f9565b91505092959194509250565b600080600080600060a086880312156135ad576135ac612dce565b5b600086013567ffffffffffffffff8111156135cb576135ca612dd3565b5b6135d7888289016134b4565b955050602086013567ffffffffffffffff8111156135f8576135f7612dd3565b5b613604888289016134b4565b945050604086013567ffffffffffffffff81111561362557613624612dd3565b5b613631888289016134b4565b935050606086013567ffffffffffffffff81111561365257613651612dd3565b5b61365e888289016134b4565b925050608061366f888289016134f9565b9150509295509295909350565b6000806040838503121561369357613692612dce565b5b60006136a185828601612df9565b92505060206136b2858286016134f9565b9150509250929050565b60006020820190506136d16000830184612f27565b92915050565b600081519050919050565b600082825260208201905092915050565b6000819050602082019050919050565b61370c81612f1b565b82525050565b600060e08301600083015161372a6000860182612ff3565b50602083015161373d6020860182612ff3565b5060408301516137506040860182613002565b50606083015184820360608601526137688282613022565b915050608083015161377d6080860182612ff3565b5060a083015161379060a0860182613703565b5060c08301516137a360c0860182612ff3565b508091505092915050565b60006137ba8383613712565b905092915050565b6000602082019050919050565b60006137da826136d7565b6137e481856136e2565b9350836020820285016137f6856136f3565b8060005b85811015613832578484038952815161381385826137ae565b945061381e836137c2565b925060208a019950506001810190506137fa565b50829750879550505050505092915050565b6000602082019050818103600083015261385e81846137cf565b905092915050565b60008060006060848603121561387f5761387e612dce565b5b600061388d86828701612df9565b935050602084013567ffffffffffffffff8111156138ae576138ad612dd3565b5b6138ba868287016134b4565b92505060406138cb868287016134f9565b9150509250925092565b600081519050919050565b600082825260208201905092915050565b6000819050602082019050919050565b600082825260208201905092915050565b600061391d82613204565b6139278185613901565b935061393283613220565b8060005b8381101561396357815161394a8882613230565b975061395583613248565b925050600181019050613936565b5085935050505092915050565b600060c0830160008301516139886000860182612ff3565b50602083015161399b6020860182612ff3565b5060408301516139ae6040860182613002565b50606083015184820360608601526139c68282613022565b91505060808301516139db6080860182612ff3565b5060a083015184820360a08601526139f38282613912565b9150508091505092915050565b6000613a0c8383613970565b905092915050565b6000602082019050919050565b6000613a2c826138d5565b613a3681856138e0565b935083602082028501613a48856138f1565b8060005b85811015613a845784840389528151613a658582613a00565b9450613a7083613a14565b925060208a01995050600181019050613a4c565b50829750879550505050505092915050565b60006020820190508181036000830152613ab08184613a21565b905092915050565b600060a082019050613acd6000830188612e3b565b613ada6020830187612e3b565b613ae76040830186612e7c565b8181036060830152613af98185612ee2565b9050613b086080830184612e3b565b9695505050505050565b7f54686520706f737420646f6573206e6f742065786973742e0000000000000000600082015250565b6000613b48601883612e96565b9150613b5382613b12565b602082019050919050565b60006020820190508181036000830152613b7781613b3b565b9050919050565b7f4e487b7100000000000000000000000000000000000000000000000000000000600052603260045260246000fd5b7f596f7520646f6e277420686176652061207065726d697373696f6e20746f206460008201527f656c657465207468697320706f73742e00000000000000000000000000000000602082015250565b6000613c09603083612e96565b9150613c1482613bad565b604082019050919050565b60006020820190508181036000830152613c3881613bfc565b9050919050565b7f4e487b7100000000000000000000000000000000000000000000000000000000600052602260045260246000fd5b60006002820490506001821680613c8657607f821691505b602082108103613c9957613c98613c3f565b5b50919050565b7f5468652074687265616420646f6573206e6f742065786973742e000000000000600082015250565b6000613cd5601a83612e96565b9150613ce082613c9f565b602082019050919050565b60006020820190508181036000830152613d0481613cc8565b9050919050565b7f596f75206172652062616e6e65642066726f6d2074686973207468726561642e600082015250565b6000613d41602083612e96565b9150613d4c82613d0b565b602082019050919050565b60006020820190508181036000830152613d7081613d34565b9050919050565b7f596f752073686f756c642070617920636f72726563742066656520746f20637260008201527f65617465206120706f73742e0000000000000000000000000000000000000000602082015250565b6000613dd3602c83612e96565b9150613dde82613d77565b604082019050919050565b60006020820190508181036000830152613e0281613dc6565b9050919050565b7f596f752063616e2774206d656e74696f6e2066757475726520706f7374732e00600082015250565b6000613e3f601f83612e96565b9150613e4a82613e09565b602082019050919050565b60006020820190508181036000830152613e6e81613e32565b9050919050565b60008190508160005260206000209050919050565b60006020601f8301049050919050565b600082821b905092915050565b600060088302613ed77fffffffffffffffffffffffffffffffffffffffffffffffffffffffffffffffff82613e9a565b613ee18683613e9a565b95508019841693508086168417925050509392505050565b6000819050919050565b6000613f1e613f19613f1484612dd8565b613ef9565b612dd8565b9050919050565b6000819050919050565b613f3883613f03565b613f4c613f4482613f25565b848454613ea7565b825550505050565b600090565b613f61613f54565b613f6c818484613f2f565b505050565b5b81811015613f9057613f85600082613f59565b600181019050613f72565b5050565b601f821115613fd557613fa681613e75565b613faf84613e8a565b81016020851015613fbe578190505b613fd2613fca85613e8a565b830182613f71565b50505b505050565b600082821c905092915050565b6000613ff860001984600802613fda565b1980831691505092915050565b60006140118383613fe7565b9150826002028217905092915050565b61402a82612e8b565b67ffffffffffffffff811115614043576140426133b7565b5b61404d8254613c6e565b614058828285613f94565b600060209050601f83116001811461408b5760008415614079578287015190505b6140838582614005565b8655506140eb565b601f19841661409986613e75565b60005b828110156140c15784890151825560018201915060208501945060208101905061409c565b868310156140de57848901516140da601f891682613fe7565b8355505b6001600288020188555050505b505050505050565b600060e082019050614108600083018a612e3b565b6141156020830189612e3b565b6141226040830188612e7c565b61412f6060830187612e7c565b81810360808301526141418186612ee2565b905061415060a0830185612e3b565b61415d60c0830184612e3b565b98975050505050505050565b7f596f752073686f756c642070617920636f72726563742066656520746f20637260008201527f65617465206120626f6172642e00000000000000000000000000000000000000602082015250565b60006141c5602d83612e96565b91506141d082614169565b604082019050919050565b600060208201905081810360008301526141f4816141b8565b9050919050565b7f4f6e6c792074686520746872656164206f776e65722063616e2062616e20757360008201527f6572732e00000000000000000000000000000000000000000000000000000000602082015250565b6000614257602483612e96565b9150614262826141fb565b604082019050919050565b600060208201905081810360008301526142868161424a565b9050919050565b7f546865205573657220697320616c72656164792062616e6e65642e0000000000600082015250565b60006142c3601b83612e96565b91506142ce8261428d565b602082019050919050565b600060208201905081810360008301526142f2816142b6565b9050919050565b7f54686520626f61726420646f6573206e6f742065786973742e00000000000000600082015250565b600061432f601983612e96565b915061433a826142f9565b602082019050919050565b6000602082019050818103600083015261435e81614322565b9050919050565b7f596f752073686f756c642070617920636f72726563742066656520746f20637260008201527f656174652061207468726561642e000000000000000000000000000000000000602082015250565b60006143c1602e83612e96565b91506143cc82614365565b604082019050919050565b600060208201905081810360008301526143f0816143b4565b9050919050565b7f54686520616d6f756e7420746f2064697374726962757465206973206e6f742060008201527f656e6f7567682e00000000000000000000000000000000000000000000000000602082015250565b6000614453602783612e96565b915061445e826143f7565b604082019050919050565b6000602082019050818103600083015261448281614446565b9050919050565b7f4e487b7100000000000000000000000000000000000000000000000000000000600052601260045260246000fd5b60006144c382612dd8565b91506144ce83612dd8565b9250826144de576144dd614489565b5b82820490509291505056fea26469706673582212202affac3297dd4b14141c66d91e556da5c8285602bca20d9dabd95268c45db56464736f6c634300081b0033",
  "linkReferences": {},
  "deployedLinkReferences": {}
}