{
  "_format": "hh-sol-artifact-1",
  "contractName": "deBBS",
  "sourceName": "contracts/deBBS.sol",
  "abi": [
    {
      "inputs": [],
      "stateMutability": "nonpayable",
      "type": "constructor"
    },
    {
      "anonymous": false,
      "inputs": [
        {
          "indexed": false,
          "internalType": "uint256",
          "name": "boardId",
          "type": "uint256"
        },
        {
          "indexed": false,
          "internalType": "address",
          "name": "boardOwner",
          "type": "address"
        },
        {
          "indexed": false,
          "internalType": "string",
          "name": "boardTitle",
          "type": "string"
        },
        {
          "indexed": false,
          "internalType": "uint256",
          "name": "timestamp",
          "type": "uint256"
        }
      ],
      "name": "BoardCreated",
      "type": "event"
    },
    {
      "anonymous": false,
      "inputs": [
        {
          "indexed": false,
          "internalType": "uint256",
          "name": "postIdFrom",
          "type": "uint256"
        },
        {
          "indexed": false,
          "internalType": "uint256",
          "name": "postIdTo",
          "type": "uint256"
        },
        {
          "indexed": false,
          "internalType": "address",
          "name": "mentionFrom",
          "type": "address"
        },
        {
          "indexed": false,
          "internalType": "address",
          "name": "mentionTo",
          "type": "address"
        },
        {
          "indexed": false,
          "internalType": "string",
          "name": "replyContent",
          "type": "string"
        },
        {
          "indexed": false,
          "internalType": "uint256",
          "name": "parentThreadId",
          "type": "uint256"
        },
        {
          "indexed": false,
          "internalType": "uint256",
          "name": "timestamp",
          "type": "uint256"
        }
      ],
      "name": "Mention",
      "type": "event"
    },
    {
      "anonymous": false,
      "inputs": [
        {
          "indexed": false,
          "internalType": "uint256",
          "name": "postId",
          "type": "uint256"
        },
        {
          "indexed": false,
          "internalType": "address",
          "name": "postOwner",
          "type": "address"
        },
        {
          "indexed": false,
          "internalType": "string",
          "name": "postContent",
          "type": "string"
        },
        {
          "indexed": false,
          "internalType": "uint256",
          "name": "parentThreadId",
          "type": "uint256"
        },
        {
          "indexed": false,
          "internalType": "uint256",
          "name": "timestamp",
          "type": "uint256"
        }
      ],
      "name": "PostCreated",
      "type": "event"
    },
    {
      "anonymous": false,
      "inputs": [
        {
          "indexed": false,
          "internalType": "uint256",
          "name": "threadId",
          "type": "uint256"
        },
        {
          "indexed": false,
          "internalType": "address",
          "name": "threadOwner",
          "type": "address"
        },
        {
          "indexed": false,
          "internalType": "string",
          "name": "threadTitle",
          "type": "string"
        },
        {
          "indexed": false,
          "internalType": "uint256",
          "name": "parentBoardId",
          "type": "uint256"
        },
        {
          "indexed": false,
          "internalType": "uint256",
          "name": "timestamp",
          "type": "uint256"
        }
      ],
      "name": "ThreadCreated",
      "type": "event"
    },
    {
      "inputs": [
        {
          "internalType": "uint256",
          "name": "threadId",
          "type": "uint256"
        },
        {
          "internalType": "address",
          "name": "targetUserToBan",
          "type": "address"
        }
      ],
      "name": "banUser",
      "outputs": [],
      "stateMutability": "nonpayable",
      "type": "function"
    },
    {
      "inputs": [
        {
          "internalType": "uint256",
          "name": "",
          "type": "uint256"
        },
        {
          "internalType": "uint256",
          "name": "",
          "type": "uint256"
        }
      ],
      "name": "boardToThreads",
      "outputs": [
        {
          "internalType": "uint256",
          "name": "",
          "type": "uint256"
        }
      ],
      "stateMutability": "view",
      "type": "function"
    },
    {
      "inputs": [
        {
          "internalType": "uint256",
          "name": "",
          "type": "uint256"
        }
      ],
      "name": "boards",
      "outputs": [
        {
          "internalType": "uint256",
          "name": "boardId",
          "type": "uint256"
        },
        {
          "internalType": "address",
          "name": "boardOwner",
          "type": "address"
        },
        {
          "internalType": "string",
          "name": "boardTitle",
          "type": "string"
        },
        {
          "internalType": "string",
          "name": "description",
          "type": "string"
        },
        {
          "internalType": "string",
          "name": "primaryColor",
          "type": "string"
        },
        {
          "internalType": "string",
          "name": "bgColor",
          "type": "string"
        },
        {
          "internalType": "uint256",
          "name": "timestamp",
          "type": "uint256"
        }
      ],
      "stateMutability": "view",
      "type": "function"
    },
    {
      "inputs": [
        {
          "internalType": "string",
          "name": "boardTitle",
          "type": "string"
        },
        {
          "internalType": "string",
          "name": "description",
          "type": "string"
        },
        {
          "internalType": "string",
          "name": "primaryColor",
          "type": "string"
        },
        {
          "internalType": "string",
          "name": "bgColor",
          "type": "string"
        },
        {
          "internalType": "address",
          "name": "frontendOwnerAddress",
          "type": "address"
        }
      ],
      "name": "createBoard",
      "outputs": [],
      "stateMutability": "payable",
      "type": "function"
    },
    {
      "inputs": [],
      "name": "createBoardFee",
      "outputs": [
        {
          "internalType": "uint256",
          "name": "",
          "type": "uint256"
        }
      ],
      "stateMutability": "view",
      "type": "function"
    },
    {
      "inputs": [
        {
          "internalType": "uint256",
          "name": "threadId",
          "type": "uint256"
        },
        {
          "internalType": "uint256",
          "name": "mentionTo",
          "type": "uint256"
        },
        {
          "internalType": "string",
          "name": "postContent",
          "type": "string"
        },
        {
          "internalType": "address",
          "name": "frontendOwnerAddress",
          "type": "address"
        }
      ],
      "name": "createPost",
      "outputs": [],
      "stateMutability": "payable",
      "type": "function"
    },
    {
      "inputs": [],
      "name": "createPostFee",
      "outputs": [
        {
          "internalType": "uint256",
          "name": "",
          "type": "uint256"
        }
      ],
      "stateMutability": "view",
      "type": "function"
    },
    {
      "inputs": [
        {
          "internalType": "uint256",
          "name": "boardId",
          "type": "uint256"
        },
        {
          "internalType": "string",
          "name": "threadTitle",
          "type": "string"
        },
        {
          "internalType": "address",
          "name": "frontendOwnerAddress",
          "type": "address"
        }
      ],
      "name": "createThread",
      "outputs": [],
      "stateMutability": "payable",
      "type": "function"
    },
    {
      "inputs": [],
      "name": "createThreadFee",
      "outputs": [
        {
          "internalType": "uint256",
          "name": "",
          "type": "uint256"
        }
      ],
      "stateMutability": "view",
      "type": "function"
    },
    {
      "inputs": [
        {
          "internalType": "uint256",
          "name": "postId",
          "type": "uint256"
        }
      ],
      "name": "deletePost",
      "outputs": [],
      "stateMutability": "nonpayable",
      "type": "function"
    },
    {
      "inputs": [
        {
          "internalType": "uint256",
          "name": "boardId",
          "type": "uint256"
        }
      ],
      "name": "getBoard",
      "outputs": [
        {
          "internalType": "uint256",
          "name": "",
          "type": "uint256"
        },
        {
          "internalType": "address",
          "name": "",
          "type": "address"
        },
        {
          "internalType": "string",
          "name": "",
          "type": "string"
        },
        {
          "internalType": "uint256",
          "name": "",
          "type": "uint256"
        }
      ],
      "stateMutability": "view",
      "type": "function"
    },
    {
      "inputs": [],
      "name": "getBoards",
      "outputs": [
        {
          "components": [
            {
              "internalType": "uint256",
              "name": "boardId",
              "type": "uint256"
            },
            {
              "internalType": "address",
              "name": "boardOwner",
              "type": "address"
            },
            {
              "internalType": "string",
              "name": "boardTitle",
              "type": "string"
            },
            {
              "internalType": "string",
              "name": "description",
              "type": "string"
            },
            {
              "internalType": "string",
              "name": "primaryColor",
              "type": "string"
            },
            {
              "internalType": "string",
              "name": "bgColor",
              "type": "string"
            },
            {
              "internalType": "uint256",
              "name": "timestamp",
              "type": "uint256"
            }
          ],
          "internalType": "struct deBBS.Board[]",
          "name": "",
          "type": "tuple[]"
        }
      ],
      "stateMutability": "view",
      "type": "function"
    },
    {
      "inputs": [
        {
          "internalType": "uint256",
          "name": "postId",
          "type": "uint256"
        }
      ],
      "name": "getPost",
      "outputs": [
        {
          "internalType": "uint256",
          "name": "",
          "type": "uint256"
        },
        {
          "internalType": "uint256",
          "name": "",
          "type": "uint256"
        },
        {
          "internalType": "address",
          "name": "",
          "type": "address"
        },
        {
          "internalType": "string",
          "name": "",
          "type": "string"
        },
        {
          "internalType": "uint256",
          "name": "",
          "type": "uint256"
        },
        {
          "internalType": "bool",
          "name": "",
          "type": "bool"
        },
        {
          "internalType": "uint256",
          "name": "",
          "type": "uint256"
        }
      ],
      "stateMutability": "view",
      "type": "function"
    },
    {
      "inputs": [
        {
          "internalType": "uint256",
          "name": "threadId",
          "type": "uint256"
        }
      ],
      "name": "getPostsByThread",
      "outputs": [
        {
          "components": [
            {
              "internalType": "uint256",
              "name": "postId",
              "type": "uint256"
            },
            {
              "internalType": "uint256",
              "name": "parentThreadId",
              "type": "uint256"
            },
            {
              "internalType": "address",
              "name": "postOwner",
              "type": "address"
            },
            {
              "internalType": "string",
              "name": "postContent",
              "type": "string"
            },
            {
              "internalType": "uint256",
              "name": "timestamp",
              "type": "uint256"
            },
            {
              "internalType": "bool",
              "name": "isDeleted",
              "type": "bool"
            },
            {
              "internalType": "uint256",
              "name": "mentionTo",
              "type": "uint256"
            }
          ],
          "internalType": "struct deBBS.Post[]",
          "name": "",
          "type": "tuple[]"
        }
      ],
      "stateMutability": "view",
      "type": "function"
    },
    {
      "inputs": [],
      "name": "getPostsCount",
      "outputs": [
        {
          "internalType": "uint256",
          "name": "",
          "type": "uint256"
        }
      ],
      "stateMutability": "view",
      "type": "function"
    },
    {
      "inputs": [
        {
          "internalType": "uint256",
          "name": "threadId",
          "type": "uint256"
        }
      ],
      "name": "getPostsCountByThread",
      "outputs": [
        {
          "internalType": "uint256",
          "name": "",
          "type": "uint256"
        }
      ],
      "stateMutability": "view",
      "type": "function"
    },
    {
      "inputs": [
        {
          "internalType": "uint256",
          "name": "threadId",
          "type": "uint256"
        }
      ],
      "name": "getThread",
      "outputs": [
        {
          "internalType": "uint256",
          "name": "",
          "type": "uint256"
        },
        {
          "internalType": "uint256",
          "name": "",
          "type": "uint256"
        },
        {
          "internalType": "address",
          "name": "",
          "type": "address"
        },
        {
          "internalType": "string",
          "name": "",
          "type": "string"
        },
        {
          "internalType": "uint256",
          "name": "",
          "type": "uint256"
        }
      ],
      "stateMutability": "view",
      "type": "function"
    },
    {
      "inputs": [
        {
          "internalType": "uint256",
          "name": "boardId",
          "type": "uint256"
        }
      ],
      "name": "getThreadsByBoard",
      "outputs": [
        {
          "components": [
            {
              "internalType": "uint256",
              "name": "threadId",
              "type": "uint256"
            },
            {
              "internalType": "uint256",
              "name": "parentBoardId",
              "type": "uint256"
            },
            {
              "internalType": "address",
              "name": "threadOwner",
              "type": "address"
            },
            {
              "internalType": "string",
              "name": "threadTitle",
              "type": "string"
            },
            {
              "internalType": "uint256",
              "name": "timestamp",
              "type": "uint256"
            },
            {
              "internalType": "address[]",
              "name": "bannedUsers",
              "type": "address[]"
            }
          ],
          "internalType": "struct deBBS.Thread[]",
          "name": "",
          "type": "tuple[]"
        }
      ],
      "stateMutability": "view",
      "type": "function"
    },
    {
      "inputs": [
        {
          "internalType": "uint256",
          "name": "boardId",
          "type": "uint256"
        }
      ],
      "name": "getThreadsCountByBoard",
      "outputs": [
        {
          "internalType": "uint256",
          "name": "",
          "type": "uint256"
        }
      ],
      "stateMutability": "view",
      "type": "function"
    },
    {
      "inputs": [
        {
          "internalType": "uint256",
          "name": "threadId",
          "type": "uint256"
        },
        {
          "internalType": "address",
          "name": "userAddress",
          "type": "address"
        }
      ],
      "name": "isAddressBanned",
      "outputs": [
        {
          "internalType": "bool",
          "name": "",
          "type": "bool"
        }
      ],
      "stateMutability": "view",
      "type": "function"
    },
    {
      "inputs": [
        {
          "internalType": "uint256",
          "name": "",
          "type": "uint256"
        }
      ],
      "name": "posts",
      "outputs": [
        {
          "internalType": "uint256",
          "name": "postId",
          "type": "uint256"
        },
        {
          "internalType": "uint256",
          "name": "parentThreadId",
          "type": "uint256"
        },
        {
          "internalType": "address",
          "name": "postOwner",
          "type": "address"
        },
        {
          "internalType": "string",
          "name": "postContent",
          "type": "string"
        },
        {
          "internalType": "uint256",
          "name": "timestamp",
          "type": "uint256"
        },
        {
          "internalType": "bool",
          "name": "isDeleted",
          "type": "bool"
        },
        {
          "internalType": "uint256",
          "name": "mentionTo",
          "type": "uint256"
        }
      ],
      "stateMutability": "view",
      "type": "function"
    },
    {
      "inputs": [
        {
          "internalType": "uint256",
          "name": "",
          "type": "uint256"
        },
        {
          "internalType": "uint256",
          "name": "",
          "type": "uint256"
        }
      ],
      "name": "threadToPosts",
      "outputs": [
        {
          "internalType": "uint256",
          "name": "",
          "type": "uint256"
        }
      ],
      "stateMutability": "view",
      "type": "function"
    },
    {
      "inputs": [
        {
          "internalType": "uint256",
          "name": "",
          "type": "uint256"
        }
      ],
      "name": "threads",
      "outputs": [
        {
          "internalType": "uint256",
          "name": "threadId",
          "type": "uint256"
        },
        {
          "internalType": "uint256",
          "name": "parentBoardId",
          "type": "uint256"
        },
        {
          "internalType": "address",
          "name": "threadOwner",
          "type": "address"
        },
        {
          "internalType": "string",
          "name": "threadTitle",
          "type": "string"
        },
        {
          "internalType": "uint256",
          "name": "timestamp",
          "type": "uint256"
        }
      ],
      "stateMutability": "view",
      "type": "function"
    }
  ],
  "bytecode": "0x6080604052348015600f57600080fd5b50662386f26fc1000060038190555066038d7ea4c68000600481905550655af3107a40006005819055506144b1806100486000396000f3fe6080604052600436106101405760003560e01c806369e8a048116100b65780639a7083f91161006f5780639a7083f9146104925780639eb11dea146104d5578063d11df97614610512578063da756dcb1461054f578063ecc54caf1461058c578063f552b2ba146105b757610140565b806369e8a0481461036b578063750607dd1461039457806379b20b03146103d15780637e27f49f1461040e578063836248821461044b57806389f191231461047657610140565b8063368f1e2311610108578063368f1e231461024457806340731c241461028557806342b9edea146102c857806345e09e54146102f35780635d951300146103335780635f35624e1461034f57610140565b8063094cd5ee146101455780630b1e7f831461016e5780631198d6e0146101b157806315aa0a50146101dc578063234e200d14610207575b600080fd5b34801561015157600080fd5b5061016c60048036038101906101679190612dd8565b6105f8565b005b34801561017a57600080fd5b5061019560048036038101906101909190612dd8565b6107e5565b6040516101a89796959493929190612f00565b60405180910390f35b3480156101bd57600080fd5b506101c66108ec565b6040516101d39190612f76565b60405180910390f35b3480156101e857600080fd5b506101f16108f2565b6040516101fe919061316c565b60405180910390f35b34801561021357600080fd5b5061022e6004803603810190610229919061318e565b610c03565b60405161023b9190612f76565b60405180910390f35b34801561025057600080fd5b5061026b60048036038101906102669190612dd8565b610c34565b60405161027c9594939291906131ce565b60405180910390f35b34801561029157600080fd5b506102ac60048036038101906102a79190612dd8565b610e2e565b6040516102bf9796959493929190612f00565b60405180910390f35b3480156102d457600080fd5b506102dd610fd2565b6040516102ea9190612f76565b60405180910390f35b3480156102ff57600080fd5b5061031a60048036038101906103159190612dd8565b610fd8565b60405161032a9493929190613228565b60405180910390f35b61034d600480360381019061034891906133d5565b6112e5565b005b61036960048036038101906103649190613458565b611645565b005b34801561037757600080fd5b50610392600480360381019061038d9190613543565b611809565b005b3480156103a057600080fd5b506103bb60048036038101906103b69190613543565b611996565b6040516103c89190613583565b60405180910390f35b3480156103dd57600080fd5b506103f860048036038101906103f39190612dd8565b611be2565b604051610405919061370b565b60405180910390f35b34801561041a57600080fd5b5061043560048036038101906104309190612dd8565b611e5d565b6040516104429190612f76565b60405180910390f35b34801561045757600080fd5b50610460611e7d565b60405161046d9190612f76565b60405180910390f35b610490600480360381019061048b919061372d565b611e8a565b005b34801561049e57600080fd5b506104b960048036038101906104b49190612dd8565b6120f9565b6040516104cc979695949392919061379c565b60405180910390f35b3480156104e157600080fd5b506104fc60048036038101906104f79190612dd8565b61238b565b6040516105099190612f76565b60405180910390f35b34801561051e57600080fd5b5061053960048036038101906105349190612dd8565b6123ab565b6040516105469190613a28565b60405180910390f35b34801561055b57600080fd5b506105766004803603810190610571919061318e565b61268f565b6040516105839190612f76565b60405180910390f35b34801561059857600080fd5b506105a16126c0565b6040516105ae9190612f76565b60405180910390f35b3480156105c357600080fd5b506105de60048036038101906105d99190612dd8565b6126c6565b6040516105ef9594939291906131ce565b60405180910390f35b600280549050811061063f576040517f08c379a000000000000000000000000000000000000000000000000000000000815260040161063690613a96565b60405180910390fd5b60006002828154811061065557610654613ab6565b5b906000526020600020906007020160020160009054906101000a900473ffffffffffffffffffffffffffffffffffffffff16905060006002838154811061069f5761069e613ab6565b5b90600052602060002090600702016001015490506000600182815481106106c9576106c8613ab6565b5b906000526020600020906006020160020160009054906101000a900473ffffffffffffffffffffffffffffffffffffffff1690508273ffffffffffffffffffffffffffffffffffffffff163373ffffffffffffffffffffffffffffffffffffffff16148061076257508073ffffffffffffffffffffffffffffffffffffffff163373ffffffffffffffffffffffffffffffffffffffff16145b6107a1576040517f08c379a000000000000000000000000000000000000000000000000000000000815260040161079890613b57565b60405180910390fd5b6001600285815481106107b7576107b6613ab6565b5b906000526020600020906007020160050160006101000a81548160ff02191690831515021790555050505050565b600281815481106107f557600080fd5b90600052602060002090600702016000915090508060000154908060010154908060020160009054906101000a900473ffffffffffffffffffffffffffffffffffffffff169080600301805461084a90613ba6565b80601f016020809104026020016040519081016040528092919081815260200182805461087690613ba6565b80156108c35780601f10610898576101008083540402835291602001916108c3565b820191906000526020600020905b8154815290600101906020018083116108a657829003601f168201915b5050505050908060040154908060050160009054906101000a900460ff16908060060154905087565b60035481565b60606000805480602002602001604051908101604052809291908181526020016000905b82821015610bfa57838290600052602060002090600702016040518060e0016040529081600082015481526020016001820160009054906101000a900473ffffffffffffffffffffffffffffffffffffffff1673ffffffffffffffffffffffffffffffffffffffff1673ffffffffffffffffffffffffffffffffffffffff1681526020016002820180546109a990613ba6565b80601f01602080910402602001604051908101604052809291908181526020018280546109d590613ba6565b8015610a225780601f106109f757610100808354040283529160200191610a22565b820191906000526020600020905b815481529060010190602001808311610a0557829003601f168201915b50505050508152602001600382018054610a3b90613ba6565b80601f0160208091040260200160405190810160405280929190818152602001828054610a6790613ba6565b8015610ab45780601f10610a8957610100808354040283529160200191610ab4565b820191906000526020600020905b815481529060010190602001808311610a9757829003601f168201915b50505050508152602001600482018054610acd90613ba6565b80601f0160208091040260200160405190810160405280929190818152602001828054610af990613ba6565b8015610b465780601f10610b1b57610100808354040283529160200191610b46565b820191906000526020600020905b815481529060010190602001808311610b2957829003601f168201915b50505050508152602001600582018054610b5f90613ba6565b80601f0160208091040260200160405190810160405280929190818152602001828054610b8b90613ba6565b8015610bd85780601f10610bad57610100808354040283529160200191610bd8565b820191906000526020600020905b815481529060010190602001808311610bbb57829003601f168201915b5050505050815260200160068201548152505081526020019060010190610916565b50505050905090565b60066020528160005260406000208181548110610c1f57600080fd5b90600052602060002001600091509150505481565b6000806000606060008060018781548110610c5257610c51613ab6565b5b90600052602060002090600602016040518060c001604052908160008201548152602001600182015481526020016002820160009054906101000a900473ffffffffffffffffffffffffffffffffffffffff1673ffffffffffffffffffffffffffffffffffffffff1673ffffffffffffffffffffffffffffffffffffffff168152602001600382018054610ce590613ba6565b80601f0160208091040260200160405190810160405280929190818152602001828054610d1190613ba6565b8015610d5e5780601f10610d3357610100808354040283529160200191610d5e565b820191906000526020600020905b815481529060010190602001808311610d4157829003601f168201915b505050505081526020016004820154815260200160058201805480602002602001604051908101604052809291908181526020018280548015610df657602002820191906000526020600020905b8160009054906101000a900473ffffffffffffffffffffffffffffffffffffffff1673ffffffffffffffffffffffffffffffffffffffff1681526020019060010190808311610dac575b505050505081525050905080600001518160200151826040015183606001518460800151955095509550955095505091939590929450565b6000806000606060008060008060028981548110610e4f57610e4e613ab6565b5b90600052602060002090600702016040518060e001604052908160008201548152602001600182015481526020016002820160009054906101000a900473ffffffffffffffffffffffffffffffffffffffff1673ffffffffffffffffffffffffffffffffffffffff1673ffffffffffffffffffffffffffffffffffffffff168152602001600382018054610ee290613ba6565b80601f0160208091040260200160405190810160405280929190818152602001828054610f0e90613ba6565b8015610f5b5780601f10610f3057610100808354040283529160200191610f5b565b820191906000526020600020905b815481529060010190602001808311610f3e57829003601f168201915b50505050508152602001600482015481526020016005820160009054906101000a900460ff161515151581526020016006820154815250509050806000015181602001518260400151836060015184608001518560a001518660c00151975097509750975097509750975050919395979092949650565b60055481565b600080606060008060008681548110610ff457610ff3613ab6565b5b90600052602060002090600702016040518060e0016040529081600082015481526020016001820160009054906101000a900473ffffffffffffffffffffffffffffffffffffffff1673ffffffffffffffffffffffffffffffffffffffff1673ffffffffffffffffffffffffffffffffffffffff16815260200160028201805461107d90613ba6565b80601f01602080910402602001604051908101604052809291908181526020018280546110a990613ba6565b80156110f65780601f106110cb576101008083540402835291602001916110f6565b820191906000526020600020905b8154815290600101906020018083116110d957829003601f168201915b5050505050815260200160038201805461110f90613ba6565b80601f016020809104026020016040519081016040528092919081815260200182805461113b90613ba6565b80156111885780601f1061115d57610100808354040283529160200191611188565b820191906000526020600020905b81548152906001019060200180831161116b57829003601f168201915b505050505081526020016004820180546111a190613ba6565b80601f01602080910402602001604051908101604052809291908181526020018280546111cd90613ba6565b801561121a5780601f106111ef5761010080835404028352916020019161121a565b820191906000526020600020905b8154815290600101906020018083116111fd57829003601f168201915b5050505050815260200160058201805461123390613ba6565b80601f016020809104026020016040519081016040528092919081815260200182805461125f90613ba6565b80156112ac5780601f10611281576101008083540402835291602001916112ac565b820191906000526020600020905b81548152906001019060200180831161128f57829003601f168201915b5050505050815260200160068201548152505090508060000151816020015182604001518360c001519450945094509450509193509193565b600180549050841061132c576040517f08c379a000000000000000000000000000000000000000000000000000000000815260040161132390613c23565b60405180910390fd5b6000151561133a8533611996565b15151461137c576040517f08c379a000000000000000000000000000000000000000000000000000000000815260040161137390613c8f565b60405180910390fd5b60055434146113c0576040517f08c379a00000000000000000000000000000000000000000000000000000000081526004016113b790613d21565b60405180910390fd5b600060028054905090508084111561140d576040517f08c379a000000000000000000000000000000000000000000000000000000000815260040161140490613d8d565b60405180910390fd5b60026040518060e001604052808381526020018781526020013373ffffffffffffffffffffffffffffffffffffffff168152602001858152602001428152602001600015158152602001868152509080600181540180825580915050600190039060005260206000209060070201600090919091909150600082015181600001556020820151816001015560408201518160020160006101000a81548173ffffffffffffffffffffffffffffffffffffffff021916908373ffffffffffffffffffffffffffffffffffffffff16021790555060608201518160030190816114f49190613f59565b506080820151816004015560a08201518160050160006101000a81548160ff02191690831515021790555060c0820151816006015550506007600086815260200190815260200160002081908060018154018082558091505060019003906000526020600020016000909190919091505561156f85836127b4565b7f9fcb19e60f699236a745fa8a0fc59ec21c36952f3230d3f494e5d3530cdbdb7381338588426040516115a695949392919061402b565b60405180910390a180841461163e577fa2307687b812b19bf8c765c6e87b81fb212ae53f21c9804a6a3196977bc807da818533600288815481106115ed576115ec613ab6565b5b906000526020600020906007020160020160009054906101000a900473ffffffffffffffffffffffffffffffffffffffff16878a426040516116359796959493929190614085565b60405180910390a15b5050505050565b6003543414611689576040517f08c379a00000000000000000000000000000000000000000000000000000000081526004016116809061416d565b60405180910390fd5b60008080549050905060006040518060e001604052808381526020013373ffffffffffffffffffffffffffffffffffffffff1681526020018881526020018781526020018681526020018581526020014281525090806001815401808255809150506001900390600052602060002090600702016000909190919091506000820151816000015560208201518160010160006101000a81548173ffffffffffffffffffffffffffffffffffffffff021916908373ffffffffffffffffffffffffffffffffffffffff160217905550604082015181600201908161176c9190613f59565b5060608201518160030190816117829190613f59565b5060808201518160040190816117989190613f59565b5060a08201518160050190816117ae9190613f59565b5060c0820151816006015550506117c4826129f7565b7f3aefb7fd8dedf3fcf9ef31cd0486a990d7a20e71e66b1f82e5111a0cb2513f2d813388426040516117f99493929190613228565b60405180910390a1505050505050565b6001828154811061181d5761181c613ab6565b5b906000526020600020906006020160020160009054906101000a900473ffffffffffffffffffffffffffffffffffffffff1673ffffffffffffffffffffffffffffffffffffffff163373ffffffffffffffffffffffffffffffffffffffff16146118bc576040517f08c379a00000000000000000000000000000000000000000000000000000000081526004016118b3906141ff565b60405180910390fd5b600015156118ca8383611996565b15151461190c576040517f08c379a00000000000000000000000000000000000000000000000000000000081526004016119039061426b565b60405180910390fd5b600182815481106119205761191f613ab6565b5b9060005260206000209060060201600501819080600181540180825580915050600190039060005260206000200160009091909190916101000a81548173ffffffffffffffffffffffffffffffffffffffff021916908373ffffffffffffffffffffffffffffffffffffffff1602179055505050565b600080600184815481106119ad576119ac613ab6565b5b90600052602060002090600602016040518060c001604052908160008201548152602001600182015481526020016002820160009054906101000a900473ffffffffffffffffffffffffffffffffffffffff1673ffffffffffffffffffffffffffffffffffffffff1673ffffffffffffffffffffffffffffffffffffffff168152602001600382018054611a4090613ba6565b80601f0160208091040260200160405190810160405280929190818152602001828054611a6c90613ba6565b8015611ab95780601f10611a8e57610100808354040283529160200191611ab9565b820191906000526020600020905b815481529060010190602001808311611a9c57829003601f168201915b505050505081526020016004820154815260200160058201805480602002602001604051908101604052809291908181526020018280548015611b5157602002820191906000526020600020905b8160009054906101000a900473ffffffffffffffffffffffffffffffffffffffff1673ffffffffffffffffffffffffffffffffffffffff1681526020019060010190808311611b07575b505050505081525050905060005b8160a0015151811015611bd5578373ffffffffffffffffffffffffffffffffffffffff168260a001518281518110611b9a57611b99613ab6565b5b602002602001015173ffffffffffffffffffffffffffffffffffffffff1603611bc857600192505050611bdc565b8080600101915050611b5f565b5060009150505b92915050565b6060600060076000848152602001908152602001600020805480602002602001604051908101604052809291908181526020018280548015611c4357602002820191906000526020600020905b815481526020019060010190808311611c2f575b505050505090506000815167ffffffffffffffff811115611c6757611c6661327e565b5b604051908082528060200260200182016040528015611ca057816020015b611c8d612c46565b815260200190600190039081611c855790505b50905060005b8251811015611e525760006002848381518110611cc657611cc5613ab6565b5b602002602001015181548110611cdf57611cde613ab6565b5b90600052602060002090600702016040518060e001604052908160008201548152602001600182015481526020016002820160009054906101000a900473ffffffffffffffffffffffffffffffffffffffff1673ffffffffffffffffffffffffffffffffffffffff1673ffffffffffffffffffffffffffffffffffffffff168152602001600382018054611d7290613ba6565b80601f0160208091040260200160405190810160405280929190818152602001828054611d9e90613ba6565b8015611deb5780601f10611dc057610100808354040283529160200191611deb565b820191906000526020600020905b815481529060010190602001808311611dce57829003601f168201915b50505050508152602001600482015481526020016005820160009054906101000a900460ff16151515158152602001600682015481525050905080838381518110611e3957611e38613ab6565b5b6020026020010181905250508080600101915050611ca6565b508092505050919050565b600060076000838152602001908152602001600020805490509050919050565b6000600280549050905090565b6000805490508310611ed1576040517f08c379a0000000000000000000000000000000000000000000000000000000008152600401611ec8906142d7565b60405180910390fd5b6004543414611f15576040517f08c379a0000000000000000000000000000000000000000000000000000000008152600401611f0c90614369565b60405180910390fd5b6000600180549050905060016040518060c001604052808381526020018681526020013373ffffffffffffffffffffffffffffffffffffffff168152602001858152602001428152602001600067ffffffffffffffff811115611f7b57611f7a61327e565b5b604051908082528060200260200182016040528015611fa95781602001602082028036833780820191505090505b508152509080600181540180825580915050600190039060005260206000209060060201600090919091909150600082015181600001556020820151816001015560408201518160020160006101000a81548173ffffffffffffffffffffffffffffffffffffffff021916908373ffffffffffffffffffffffffffffffffffffffff16021790555060608201518160030190816120469190613f59565b506080820151816004015560a082015181600501908051906020019061206d929190612c9b565b505050600660008581526020019081526020016000208190806001815401808255809150506001900390600052602060002001600090919091909150556120b48483612acf565b7fd69d6b07c592e9e941b5fb132eb006489a20a1453231fb9facb95ff4f303235d81338587426040516120eb95949392919061402b565b60405180910390a150505050565b6000818154811061210957600080fd5b90600052602060002090600702016000915090508060000154908060010160009054906101000a900473ffffffffffffffffffffffffffffffffffffffff169080600201805461215890613ba6565b80601f016020809104026020016040519081016040528092919081815260200182805461218490613ba6565b80156121d15780601f106121a6576101008083540402835291602001916121d1565b820191906000526020600020905b8154815290600101906020018083116121b457829003601f168201915b5050505050908060030180546121e690613ba6565b80601f016020809104026020016040519081016040528092919081815260200182805461221290613ba6565b801561225f5780601f106122345761010080835404028352916020019161225f565b820191906000526020600020905b81548152906001019060200180831161224257829003601f168201915b50505050509080600401805461227490613ba6565b80601f01602080910402602001604051908101604052809291908181526020018280546122a090613ba6565b80156122ed5780601f106122c2576101008083540402835291602001916122ed565b820191906000526020600020905b8154815290600101906020018083116122d057829003601f168201915b50505050509080600501805461230290613ba6565b80601f016020809104026020016040519081016040528092919081815260200182805461232e90613ba6565b801561237b5780601f106123505761010080835404028352916020019161237b565b820191906000526020600020905b81548152906001019060200180831161235e57829003601f168201915b5050505050908060060154905087565b600060066000838152602001908152602001600020805490509050919050565b606060006006600084815260200190815260200160002080548060200260200160405190810160405280929190818152602001828054801561240c57602002820191906000526020600020905b8154815260200190600101908083116123f8575b505050505090506000815167ffffffffffffffff8111156124305761242f61327e565b5b60405190808252806020026020018201604052801561246957816020015b612456612d25565b81526020019060019003908161244e5790505b50905060005b8251811015612684576000600184838151811061248f5761248e613ab6565b5b6020026020010151815481106124a8576124a7613ab6565b5b90600052602060002090600602016040518060c001604052908160008201548152602001600182015481526020016002820160009054906101000a900473ffffffffffffffffffffffffffffffffffffffff1673ffffffffffffffffffffffffffffffffffffffff1673ffffffffffffffffffffffffffffffffffffffff16815260200160038201805461253b90613ba6565b80601f016020809104026020016040519081016040528092919081815260200182805461256790613ba6565b80156125b45780601f10612589576101008083540402835291602001916125b4565b820191906000526020600020905b81548152906001019060200180831161259757829003601f168201915b50505050508152602001600482015481526020016005820180548060200260200160405190810160405280929190818152602001828054801561264c57602002820191906000526020600020905b8160009054906101000a900473ffffffffffffffffffffffffffffffffffffffff1673ffffffffffffffffffffffffffffffffffffffff1681526020019060010190808311612602575b50505050508152505090508083838151811061266b5761266a613ab6565b5b602002602001018190525050808060010191505061246f565b508092505050919050565b600760205281600052604060002081815481106126ab57600080fd5b90600052602060002001600091509150505481565b60045481565b600181815481106126d657600080fd5b90600052602060002090600602016000915090508060000154908060010154908060020160009054906101000a900473ffffffffffffffffffffffffffffffffffffffff169080600301805461272b90613ba6565b80601f016020809104026020016040519081016040528092919081815260200182805461275790613ba6565b80156127a45780601f10612779576101008083540402835291602001916127a4565b820191906000526020600020905b81548152906001019060200180831161278757829003601f168201915b5050505050908060040154905085565b4760055411156127f9576040517f08c379a00000000000000000000000000000000000000000000000000000000081526004016127f0906143fb565b60405180910390fd5b60006001838154811061280f5761280e613ab6565b5b9060005260206000209060060201600101549050600080828154811061283857612837613ab6565b5b906000526020600020906007020160010160009054906101000a900473ffffffffffffffffffffffffffffffffffffffff1690508073ffffffffffffffffffffffffffffffffffffffff166108fc6004600554612895919061444a565b9081150290604051600060405180830381858888f193505050501580156128c0573d6000803e3d6000fd5b506000600185815481106128d7576128d6613ab6565b5b906000526020600020906006020160020160009054906101000a900473ffffffffffffffffffffffffffffffffffffffff1690508073ffffffffffffffffffffffffffffffffffffffff166108fc6004600554612934919061444a565b9081150290604051600060405180830381858888f1935050505015801561295f573d6000803e3d6000fd5b50600073ffffffffffffffffffffffffffffffffffffffff168473ffffffffffffffffffffffffffffffffffffffff16146129f05760008490508073ffffffffffffffffffffffffffffffffffffffff166108fc60046005546129c2919061444a565b9081150290604051600060405180830381858888f193505050501580156129ed573d6000803e3d6000fd5b50505b5050505050565b476003541115612a3c576040517f08c379a0000000000000000000000000000000000000000000000000000000008152600401612a33906143fb565b60405180910390fd5b600073ffffffffffffffffffffffffffffffffffffffff168173ffffffffffffffffffffffffffffffffffffffff1614612acc5760008190508073ffffffffffffffffffffffffffffffffffffffff166108fc6004600354612a9e919061444a565b9081150290604051600060405180830381858888f19350505050158015612ac9573d6000803e3d6000fd5b50505b50565b476004541115612b14576040517f08c379a0000000000000000000000000000000000000000000000000000000008152600401612b0b906143fb565b60405180910390fd5b6000808381548110612b2957612b28613ab6565b5b906000526020600020906007020160010160009054906101000a900473ffffffffffffffffffffffffffffffffffffffff1690508073ffffffffffffffffffffffffffffffffffffffff166108fc6002600454612b86919061444a565b9081150290604051600060405180830381858888f19350505050158015612bb1573d6000803e3d6000fd5b50600073ffffffffffffffffffffffffffffffffffffffff168273ffffffffffffffffffffffffffffffffffffffff1614612c415760008290508073ffffffffffffffffffffffffffffffffffffffff166108fc60048054612c13919061444a565b9081150290604051600060405180830381858888f19350505050158015612c3e573d6000803e3d6000fd5b50505b505050565b6040518060e001604052806000815260200160008152602001600073ffffffffffffffffffffffffffffffffffffffff1681526020016060815260200160008152602001600015158152602001600081525090565b828054828255906000526020600020908101928215612d14579160200282015b82811115612d135782518260006101000a81548173ffffffffffffffffffffffffffffffffffffffff021916908373ffffffffffffffffffffffffffffffffffffffff16021790555091602001919060010190612cbb565b5b509050612d219190612d71565b5090565b6040518060c001604052806000815260200160008152602001600073ffffffffffffffffffffffffffffffffffffffff1681526020016060815260200160008152602001606081525090565b5b80821115612d8a576000816000905550600101612d72565b5090565b6000604051905090565b600080fd5b600080fd5b6000819050919050565b612db581612da2565b8114612dc057600080fd5b50565b600081359050612dd281612dac565b92915050565b600060208284031215612dee57612ded612d98565b5b6000612dfc84828501612dc3565b91505092915050565b612e0e81612da2565b82525050565b600073ffffffffffffffffffffffffffffffffffffffff82169050919050565b6000612e3f82612e14565b9050919050565b612e4f81612e34565b82525050565b600081519050919050565b600082825260208201905092915050565b60005b83811015612e8f578082015181840152602081019050612e74565b60008484015250505050565b6000601f19601f8301169050919050565b6000612eb782612e55565b612ec18185612e60565b9350612ed1818560208601612e71565b612eda81612e9b565b840191505092915050565b60008115159050919050565b612efa81612ee5565b82525050565b600060e082019050612f15600083018a612e05565b612f226020830189612e05565b612f2f6040830188612e46565b8181036060830152612f418187612eac565b9050612f506080830186612e05565b612f5d60a0830185612ef1565b612f6a60c0830184612e05565b98975050505050505050565b6000602082019050612f8b6000830184612e05565b92915050565b600081519050919050565b600082825260208201905092915050565b6000819050602082019050919050565b612fc681612da2565b82525050565b612fd581612e34565b82525050565b600082825260208201905092915050565b6000612ff782612e55565b6130018185612fdb565b9350613011818560208601612e71565b61301a81612e9b565b840191505092915050565b600060e08301600083015161303d6000860182612fbd565b5060208301516130506020860182612fcc565b50604083015184820360408601526130688282612fec565b915050606083015184820360608601526130828282612fec565b9150506080830151848203608086015261309c8282612fec565b91505060a083015184820360a08601526130b68282612fec565b91505060c08301516130cb60c0860182612fbd565b508091505092915050565b60006130e28383613025565b905092915050565b6000602082019050919050565b600061310282612f91565b61310c8185612f9c565b93508360208202850161311e85612fad565b8060005b8581101561315a578484038952815161313b85826130d6565b9450613146836130ea565b925060208a01995050600181019050613122565b50829750879550505050505092915050565b6000602082019050818103600083015261318681846130f7565b905092915050565b600080604083850312156131a5576131a4612d98565b5b60006131b385828601612dc3565b92505060206131c485828601612dc3565b9150509250929050565b600060a0820190506131e36000830188612e05565b6131f06020830187612e05565b6131fd6040830186612e46565b818103606083015261320f8185612eac565b905061321e6080830184612e05565b9695505050505050565b600060808201905061323d6000830187612e05565b61324a6020830186612e46565b818103604083015261325c8185612eac565b905061326b6060830184612e05565b95945050505050565b600080fd5b600080fd5b7f4e487b7100000000000000000000000000000000000000000000000000000000600052604160045260246000fd5b6132b682612e9b565b810181811067ffffffffffffffff821117156132d5576132d461327e565b5b80604052505050565b60006132e8612d8e565b90506132f482826132ad565b919050565b600067ffffffffffffffff8211156133145761331361327e565b5b61331d82612e9b565b9050602081019050919050565b82818337600083830152505050565b600061334c613347846132f9565b6132de565b90508281526020810184848401111561336857613367613279565b5b61337384828561332a565b509392505050565b600082601f8301126133905761338f613274565b5b81356133a0848260208601613339565b91505092915050565b6133b281612e34565b81146133bd57600080fd5b50565b6000813590506133cf816133a9565b92915050565b600080600080608085870312156133ef576133ee612d98565b5b60006133fd87828801612dc3565b945050602061340e87828801612dc3565b935050604085013567ffffffffffffffff81111561342f5761342e612d9d565b5b61343b8782880161337b565b925050606061344c878288016133c0565b91505092959194509250565b600080600080600060a0868803121561347457613473612d98565b5b600086013567ffffffffffffffff81111561349257613491612d9d565b5b61349e8882890161337b565b955050602086013567ffffffffffffffff8111156134bf576134be612d9d565b5b6134cb8882890161337b565b945050604086013567ffffffffffffffff8111156134ec576134eb612d9d565b5b6134f88882890161337b565b935050606086013567ffffffffffffffff81111561351957613518612d9d565b5b6135258882890161337b565b9250506080613536888289016133c0565b9150509295509295909350565b6000806040838503121561355a57613559612d98565b5b600061356885828601612dc3565b9250506020613579858286016133c0565b9150509250929050565b60006020820190506135986000830184612ef1565b92915050565b600081519050919050565b600082825260208201905092915050565b6000819050602082019050919050565b6135d381612ee5565b82525050565b600060e0830160008301516135f16000860182612fbd565b5060208301516136046020860182612fbd565b5060408301516136176040860182612fcc565b506060830151848203606086015261362f8282612fec565b91505060808301516136446080860182612fbd565b5060a083015161365760a08601826135ca565b5060c083015161366a60c0860182612fbd565b508091505092915050565b600061368183836135d9565b905092915050565b6000602082019050919050565b60006136a18261359e565b6136ab81856135a9565b9350836020820285016136bd856135ba565b8060005b858110156136f957848403895281516136da8582613675565b94506136e583613689565b925060208a019950506001810190506136c1565b50829750879550505050505092915050565b600060208201905081810360008301526137258184613696565b905092915050565b60008060006060848603121561374657613745612d98565b5b600061375486828701612dc3565b935050602084013567ffffffffffffffff81111561377557613774612d9d565b5b6137818682870161337b565b9250506040613792868287016133c0565b9150509250925092565b600060e0820190506137b1600083018a612e05565b6137be6020830189612e46565b81810360408301526137d08188612eac565b905081810360608301526137e48187612eac565b905081810360808301526137f88186612eac565b905081810360a083015261380c8185612eac565b905061381b60c0830184612e05565b98975050505050505050565b600081519050919050565b600082825260208201905092915050565b6000819050602082019050919050565b600081519050919050565b600082825260208201905092915050565b6000819050602082019050919050565b600061388b8383612fcc565b60208301905092915050565b6000602082019050919050565b60006138af82613853565b6138b9818561385e565b93506138c48361386f565b8060005b838110156138f55781516138dc888261387f565b97506138e783613897565b9250506001810190506138c8565b5085935050505092915050565b600060c08301600083015161391a6000860182612fbd565b50602083015161392d6020860182612fbd565b5060408301516139406040860182612fcc565b50606083015184820360608601526139588282612fec565b915050608083015161396d6080860182612fbd565b5060a083015184820360a086015261398582826138a4565b9150508091505092915050565b600061399e8383613902565b905092915050565b6000602082019050919050565b60006139be82613827565b6139c88185613832565b9350836020820285016139da85613843565b8060005b85811015613a1657848403895281516139f78582613992565b9450613a02836139a6565b925060208a019950506001810190506139de565b50829750879550505050505092915050565b60006020820190508181036000830152613a4281846139b3565b905092915050565b7f54686520706f737420646f6573206e6f742065786973742e0000000000000000600082015250565b6000613a80601883612e60565b9150613a8b82613a4a565b602082019050919050565b60006020820190508181036000830152613aaf81613a73565b9050919050565b7f4e487b7100000000000000000000000000000000000000000000000000000000600052603260045260246000fd5b7f596f7520646f6e277420686176652061207065726d697373696f6e20746f206460008201527f656c657465207468697320706f73742e00000000000000000000000000000000602082015250565b6000613b41603083612e60565b9150613b4c82613ae5565b604082019050919050565b60006020820190508181036000830152613b7081613b34565b9050919050565b7f4e487b7100000000000000000000000000000000000000000000000000000000600052602260045260246000fd5b60006002820490506001821680613bbe57607f821691505b602082108103613bd157613bd0613b77565b5b50919050565b7f5468652074687265616420646f6573206e6f742065786973742e000000000000600082015250565b6000613c0d601a83612e60565b9150613c1882613bd7565b602082019050919050565b60006020820190508181036000830152613c3c81613c00565b9050919050565b7f596f75206172652062616e6e65642066726f6d2074686973207468726561642e600082015250565b6000613c79602083612e60565b9150613c8482613c43565b602082019050919050565b60006020820190508181036000830152613ca881613c6c565b9050919050565b7f596f752073686f756c642070617920636f72726563742066656520746f20637260008201527f65617465206120706f73742e0000000000000000000000000000000000000000602082015250565b6000613d0b602c83612e60565b9150613d1682613caf565b604082019050919050565b60006020820190508181036000830152613d3a81613cfe565b9050919050565b7f596f752063616e2774206d656e74696f6e2066757475726520706f7374732e00600082015250565b6000613d77601f83612e60565b9150613d8282613d41565b602082019050919050565b60006020820190508181036000830152613da681613d6a565b9050919050565b60008190508160005260206000209050919050565b60006020601f8301049050919050565b600082821b905092915050565b600060088302613e0f7fffffffffffffffffffffffffffffffffffffffffffffffffffffffffffffffff82613dd2565b613e198683613dd2565b95508019841693508086168417925050509392505050565b6000819050919050565b6000613e56613e51613e4c84612da2565b613e31565b612da2565b9050919050565b6000819050919050565b613e7083613e3b565b613e84613e7c82613e5d565b848454613ddf565b825550505050565b600090565b613e99613e8c565b613ea4818484613e67565b505050565b5b81811015613ec857613ebd600082613e91565b600181019050613eaa565b5050565b601f821115613f0d57613ede81613dad565b613ee784613dc2565b81016020851015613ef6578190505b613f0a613f0285613dc2565b830182613ea9565b50505b505050565b600082821c905092915050565b6000613f3060001984600802613f12565b1980831691505092915050565b6000613f498383613f1f565b9150826002028217905092915050565b613f6282612e55565b67ffffffffffffffff811115613f7b57613f7a61327e565b5b613f858254613ba6565b613f90828285613ecc565b600060209050601f831160018114613fc35760008415613fb1578287015190505b613fbb8582613f3d565b865550614023565b601f198416613fd186613dad565b60005b82811015613ff957848901518255600182019150602085019450602081019050613fd4565b868310156140165784890151614012601f891682613f1f565b8355505b6001600288020188555050505b505050505050565b600060a0820190506140406000830188612e05565b61404d6020830187612e46565b818103604083015261405f8186612eac565b905061406e6060830185612e05565b61407b6080830184612e05565b9695505050505050565b600060e08201905061409a600083018a612e05565b6140a76020830189612e05565b6140b46040830188612e46565b6140c16060830187612e46565b81810360808301526140d38186612eac565b90506140e260a0830185612e05565b6140ef60c0830184612e05565b98975050505050505050565b7f596f752073686f756c642070617920636f72726563742066656520746f20637260008201527f65617465206120626f6172642e00000000000000000000000000000000000000602082015250565b6000614157602d83612e60565b9150614162826140fb565b604082019050919050565b600060208201905081810360008301526141868161414a565b9050919050565b7f4f6e6c792074686520746872656164206f776e65722063616e2062616e20757360008201527f6572732e00000000000000000000000000000000000000000000000000000000602082015250565b60006141e9602483612e60565b91506141f48261418d565b604082019050919050565b60006020820190508181036000830152614218816141dc565b9050919050565b7f546865205573657220697320616c72656164792062616e6e65642e0000000000600082015250565b6000614255601b83612e60565b91506142608261421f565b602082019050919050565b6000602082019050818103600083015261428481614248565b9050919050565b7f54686520626f61726420646f6573206e6f742065786973742e00000000000000600082015250565b60006142c1601983612e60565b91506142cc8261428b565b602082019050919050565b600060208201905081810360008301526142f0816142b4565b9050919050565b7f596f752073686f756c642070617920636f72726563742066656520746f20637260008201527f656174652061207468726561642e000000000000000000000000000000000000602082015250565b6000614353602e83612e60565b915061435e826142f7565b604082019050919050565b6000602082019050818103600083015261438281614346565b9050919050565b7f54686520616d6f756e7420746f2064697374726962757465206973206e6f742060008201527f656e6f7567682e00000000000000000000000000000000000000000000000000602082015250565b60006143e5602783612e60565b91506143f082614389565b604082019050919050565b60006020820190508181036000830152614414816143d8565b9050919050565b7f4e487b7100000000000000000000000000000000000000000000000000000000600052601260045260246000fd5b600061445582612da2565b915061446083612da2565b9250826144705761446f61441b565b5b82820490509291505056fea2646970667358221220b505d1754cc092811216165b45e06cca95f3c5370282d6e779cb3636ec604bad64736f6c634300081b0033",
  "linkReferences": {},
  "deployedLinkReferences": {}
}