{
  "_format": "hh-sol-artifact-1",
  "contractName": "deBBS",
  "sourceName": "contracts/deBBS.sol",
  "abi": [
    {
      "inputs": [],
      "stateMutability": "nonpayable",
      "type": "constructor"
    },
    {
      "anonymous": false,
      "inputs": [
        {
          "indexed": false,
          "internalType": "uint256",
          "name": "boardId",
          "type": "uint256"
        },
        {
          "indexed": false,
          "internalType": "address",
          "name": "boardOwner",
          "type": "address"
        },
        {
          "indexed": false,
          "internalType": "string",
          "name": "boardTitle",
          "type": "string"
        },
        {
          "indexed": false,
          "internalType": "uint256",
          "name": "timestamp",
          "type": "uint256"
        }
      ],
      "name": "BoardCreated",
      "type": "event"
    },
    {
      "anonymous": false,
      "inputs": [
        {
          "indexed": false,
          "internalType": "uint256",
          "name": "postId",
          "type": "uint256"
        },
        {
          "indexed": false,
          "internalType": "address",
          "name": "postOwner",
          "type": "address"
        },
        {
          "indexed": false,
          "internalType": "string",
          "name": "postContent",
          "type": "string"
        },
        {
          "indexed": false,
          "internalType": "uint256",
          "name": "parentThreadId",
          "type": "uint256"
        },
        {
          "indexed": false,
          "internalType": "uint256",
          "name": "timestamp",
          "type": "uint256"
        }
      ],
      "name": "PostCreated",
      "type": "event"
    },
    {
      "anonymous": false,
      "inputs": [
        {
          "indexed": false,
          "internalType": "uint256",
          "name": "threadId",
          "type": "uint256"
        },
        {
          "indexed": false,
          "internalType": "address",
          "name": "threadOwner",
          "type": "address"
        },
        {
          "indexed": false,
          "internalType": "string",
          "name": "threadTitle",
          "type": "string"
        },
        {
          "indexed": false,
          "internalType": "uint256",
          "name": "parentBoardId",
          "type": "uint256"
        },
        {
          "indexed": false,
          "internalType": "uint256",
          "name": "timestamp",
          "type": "uint256"
        }
      ],
      "name": "ThreadCreated",
      "type": "event"
    },
    {
      "inputs": [
        {
          "internalType": "uint256",
          "name": "threadId",
          "type": "uint256"
        },
        {
          "internalType": "address",
          "name": "targetUserToBan",
          "type": "address"
        }
      ],
      "name": "banUser",
      "outputs": [],
      "stateMutability": "nonpayable",
      "type": "function"
    },
    {
      "inputs": [
        {
          "internalType": "uint256",
          "name": "",
          "type": "uint256"
        },
        {
          "internalType": "uint256",
          "name": "",
          "type": "uint256"
        }
      ],
      "name": "boardToThreads",
      "outputs": [
        {
          "internalType": "uint256",
          "name": "",
          "type": "uint256"
        }
      ],
      "stateMutability": "view",
      "type": "function"
    },
    {
      "inputs": [
        {
          "internalType": "uint256",
          "name": "",
          "type": "uint256"
        }
      ],
      "name": "boards",
      "outputs": [
        {
          "internalType": "uint256",
          "name": "boardId",
          "type": "uint256"
        },
        {
          "internalType": "address",
          "name": "boardOwner",
          "type": "address"
        },
        {
          "internalType": "string",
          "name": "boardTitle",
          "type": "string"
        },
        {
          "internalType": "string",
          "name": "description",
          "type": "string"
        },
        {
          "internalType": "string",
          "name": "primaryColor",
          "type": "string"
        },
        {
          "internalType": "string",
          "name": "bgColor",
          "type": "string"
        },
        {
          "internalType": "uint256",
          "name": "timestamp",
          "type": "uint256"
        }
      ],
      "stateMutability": "view",
      "type": "function"
    },
    {
      "inputs": [
        {
          "internalType": "string",
          "name": "boardTitle",
          "type": "string"
        },
        {
          "internalType": "string",
          "name": "description",
          "type": "string"
        },
        {
          "internalType": "string",
          "name": "primaryColor",
          "type": "string"
        },
        {
          "internalType": "string",
          "name": "bgColor",
          "type": "string"
        },
        {
          "internalType": "address",
          "name": "frontendOwnerAddress",
          "type": "address"
        }
      ],
      "name": "createBoard",
      "outputs": [],
      "stateMutability": "payable",
      "type": "function"
    },
    {
      "inputs": [],
      "name": "createBoardFee",
      "outputs": [
        {
          "internalType": "uint256",
          "name": "",
          "type": "uint256"
        }
      ],
      "stateMutability": "view",
      "type": "function"
    },
    {
      "inputs": [
        {
          "internalType": "uint256",
          "name": "threadId",
          "type": "uint256"
        },
        {
          "internalType": "string",
          "name": "postContent",
          "type": "string"
        },
        {
          "internalType": "address",
          "name": "frontendOwnerAddress",
          "type": "address"
        }
      ],
      "name": "createPost",
      "outputs": [],
      "stateMutability": "payable",
      "type": "function"
    },
    {
      "inputs": [],
      "name": "createPostFee",
      "outputs": [
        {
          "internalType": "uint256",
          "name": "",
          "type": "uint256"
        }
      ],
      "stateMutability": "view",
      "type": "function"
    },
    {
      "inputs": [
        {
          "internalType": "uint256",
          "name": "boardId",
          "type": "uint256"
        },
        {
          "internalType": "string",
          "name": "threadTitle",
          "type": "string"
        },
        {
          "internalType": "address",
          "name": "frontendOwnerAddress",
          "type": "address"
        }
      ],
      "name": "createThread",
      "outputs": [],
      "stateMutability": "payable",
      "type": "function"
    },
    {
      "inputs": [],
      "name": "createThreadFee",
      "outputs": [
        {
          "internalType": "uint256",
          "name": "",
          "type": "uint256"
        }
      ],
      "stateMutability": "view",
      "type": "function"
    },
    {
      "inputs": [
        {
          "internalType": "uint256",
          "name": "postId",
          "type": "uint256"
        }
      ],
      "name": "deletePost",
      "outputs": [],
      "stateMutability": "nonpayable",
      "type": "function"
    },
    {
      "inputs": [
        {
          "internalType": "uint256",
          "name": "boardId",
          "type": "uint256"
        }
      ],
      "name": "getBoard",
      "outputs": [
        {
          "internalType": "uint256",
          "name": "",
          "type": "uint256"
        },
        {
          "internalType": "address",
          "name": "",
          "type": "address"
        },
        {
          "internalType": "string",
          "name": "",
          "type": "string"
        },
        {
          "internalType": "uint256",
          "name": "",
          "type": "uint256"
        }
      ],
      "stateMutability": "view",
      "type": "function"
    },
    {
      "inputs": [],
      "name": "getBoards",
      "outputs": [
        {
          "components": [
            {
              "internalType": "uint256",
              "name": "boardId",
              "type": "uint256"
            },
            {
              "internalType": "address",
              "name": "boardOwner",
              "type": "address"
            },
            {
              "internalType": "string",
              "name": "boardTitle",
              "type": "string"
            },
            {
              "internalType": "string",
              "name": "description",
              "type": "string"
            },
            {
              "internalType": "string",
              "name": "primaryColor",
              "type": "string"
            },
            {
              "internalType": "string",
              "name": "bgColor",
              "type": "string"
            },
            {
              "internalType": "uint256",
              "name": "timestamp",
              "type": "uint256"
            }
          ],
          "internalType": "struct deBBS.Board[]",
          "name": "",
          "type": "tuple[]"
        }
      ],
      "stateMutability": "view",
      "type": "function"
    },
    {
      "inputs": [
        {
          "internalType": "uint256",
          "name": "postId",
          "type": "uint256"
        }
      ],
      "name": "getPost",
      "outputs": [
        {
          "internalType": "uint256",
          "name": "",
          "type": "uint256"
        },
        {
          "internalType": "uint256",
          "name": "",
          "type": "uint256"
        },
        {
          "internalType": "address",
          "name": "",
          "type": "address"
        },
        {
          "internalType": "string",
          "name": "",
          "type": "string"
        },
        {
          "internalType": "uint256",
          "name": "",
          "type": "uint256"
        },
        {
          "internalType": "bool",
          "name": "",
          "type": "bool"
        }
      ],
      "stateMutability": "view",
      "type": "function"
    },
    {
      "inputs": [
        {
          "internalType": "uint256",
          "name": "threadId",
          "type": "uint256"
        }
      ],
      "name": "getPostsByThread",
      "outputs": [
        {
          "components": [
            {
              "internalType": "uint256",
              "name": "postId",
              "type": "uint256"
            },
            {
              "internalType": "uint256",
              "name": "parentThreadId",
              "type": "uint256"
            },
            {
              "internalType": "address",
              "name": "postOwner",
              "type": "address"
            },
            {
              "internalType": "string",
              "name": "postContent",
              "type": "string"
            },
            {
              "internalType": "uint256",
              "name": "timestamp",
              "type": "uint256"
            },
            {
              "internalType": "bool",
              "name": "isDeleted",
              "type": "bool"
            }
          ],
          "internalType": "struct deBBS.Post[]",
          "name": "",
          "type": "tuple[]"
        }
      ],
      "stateMutability": "view",
      "type": "function"
    },
    {
      "inputs": [
        {
          "internalType": "uint256",
          "name": "threadId",
          "type": "uint256"
        }
      ],
      "name": "getPostsCountByThread",
      "outputs": [
        {
          "internalType": "uint256",
          "name": "",
          "type": "uint256"
        }
      ],
      "stateMutability": "view",
      "type": "function"
    },
    {
      "inputs": [
        {
          "internalType": "uint256",
          "name": "threadId",
          "type": "uint256"
        }
      ],
      "name": "getThread",
      "outputs": [
        {
          "internalType": "uint256",
          "name": "",
          "type": "uint256"
        },
        {
          "internalType": "uint256",
          "name": "",
          "type": "uint256"
        },
        {
          "internalType": "address",
          "name": "",
          "type": "address"
        },
        {
          "internalType": "string",
          "name": "",
          "type": "string"
        },
        {
          "internalType": "uint256",
          "name": "",
          "type": "uint256"
        }
      ],
      "stateMutability": "view",
      "type": "function"
    },
    {
      "inputs": [
        {
          "internalType": "uint256",
          "name": "boardId",
          "type": "uint256"
        }
      ],
      "name": "getThreadsByBoard",
      "outputs": [
        {
          "components": [
            {
              "internalType": "uint256",
              "name": "threadId",
              "type": "uint256"
            },
            {
              "internalType": "uint256",
              "name": "parentBoardId",
              "type": "uint256"
            },
            {
              "internalType": "address",
              "name": "threadOwner",
              "type": "address"
            },
            {
              "internalType": "string",
              "name": "threadTitle",
              "type": "string"
            },
            {
              "internalType": "uint256",
              "name": "timestamp",
              "type": "uint256"
            },
            {
              "internalType": "address[]",
              "name": "bannedUsers",
              "type": "address[]"
            }
          ],
          "internalType": "struct deBBS.Thread[]",
          "name": "",
          "type": "tuple[]"
        }
      ],
      "stateMutability": "view",
      "type": "function"
    },
    {
      "inputs": [
        {
          "internalType": "uint256",
          "name": "boardId",
          "type": "uint256"
        }
      ],
      "name": "getThreadsCountByBoard",
      "outputs": [
        {
          "internalType": "uint256",
          "name": "",
          "type": "uint256"
        }
      ],
      "stateMutability": "view",
      "type": "function"
    },
    {
      "inputs": [
        {
          "internalType": "uint256",
          "name": "threadId",
          "type": "uint256"
        },
        {
          "internalType": "address",
          "name": "userAddress",
          "type": "address"
        }
      ],
      "name": "isAddressBanned",
      "outputs": [
        {
          "internalType": "bool",
          "name": "",
          "type": "bool"
        }
      ],
      "stateMutability": "view",
      "type": "function"
    },
    {
      "inputs": [
        {
          "internalType": "uint256",
          "name": "",
          "type": "uint256"
        }
      ],
      "name": "posts",
      "outputs": [
        {
          "internalType": "uint256",
          "name": "postId",
          "type": "uint256"
        },
        {
          "internalType": "uint256",
          "name": "parentThreadId",
          "type": "uint256"
        },
        {
          "internalType": "address",
          "name": "postOwner",
          "type": "address"
        },
        {
          "internalType": "string",
          "name": "postContent",
          "type": "string"
        },
        {
          "internalType": "uint256",
          "name": "timestamp",
          "type": "uint256"
        },
        {
          "internalType": "bool",
          "name": "isDeleted",
          "type": "bool"
        }
      ],
      "stateMutability": "view",
      "type": "function"
    },
    {
      "inputs": [
        {
          "internalType": "uint256",
          "name": "",
          "type": "uint256"
        },
        {
          "internalType": "uint256",
          "name": "",
          "type": "uint256"
        }
      ],
      "name": "threadToPosts",
      "outputs": [
        {
          "internalType": "uint256",
          "name": "",
          "type": "uint256"
        }
      ],
      "stateMutability": "view",
      "type": "function"
    },
    {
      "inputs": [
        {
          "internalType": "uint256",
          "name": "",
          "type": "uint256"
        }
      ],
      "name": "threads",
      "outputs": [
        {
          "internalType": "uint256",
          "name": "threadId",
          "type": "uint256"
        },
        {
          "internalType": "uint256",
          "name": "parentBoardId",
          "type": "uint256"
        },
        {
          "internalType": "address",
          "name": "threadOwner",
          "type": "address"
        },
        {
          "internalType": "string",
          "name": "threadTitle",
          "type": "string"
        },
        {
          "internalType": "uint256",
          "name": "timestamp",
          "type": "uint256"
        }
      ],
      "stateMutability": "view",
      "type": "function"
    }
  ],
  "bytecode": "0x6080604052348015600f57600080fd5b50662386f26fc1000060038190555066038d7ea4c68000600481905550655af3107a4000600581905550613f02806100486000396000f3fe6080604052600436106101355760003560e01c8063750607dd116100ab5780639a7083f91161006f5780639a7083f91461045a5780639eb11dea1461049d578063d11df976146104da578063da756dcb14610517578063ecc54caf14610554578063f552b2ba1461057f57610135565b8063750607dd1461036b57806379b20b03146103a85780637e27f49f146103e557806389f19123146104225780638a6e4ed81461043e57610135565b8063368f1e23116100fd578063368f1e231461023857806340731c241461027957806342b9edea146102bb57806345e09e54146102e65780635f35624e1461032657806369e8a0481461034257610135565b8063094cd5ee1461013a5780630b1e7f83146101635780631198d6e0146101a557806315aa0a50146101d0578063234e200d146101fb575b600080fd5b34801561014657600080fd5b50610161600480360381019061015c9190612b5f565b6105c0565b005b34801561016f57600080fd5b5061018a60048036038101906101859190612b5f565b610766565b60405161019c96959493929190612c87565b60405180910390f35b3480156101b157600080fd5b506101ba610867565b6040516101c79190612cef565b60405180910390f35b3480156101dc57600080fd5b506101e561086d565b6040516101f29190612ee5565b60405180910390f35b34801561020757600080fd5b50610222600480360381019061021d9190612f07565b610b7e565b60405161022f9190612cef565b60405180910390f35b34801561024457600080fd5b5061025f600480360381019061025a9190612b5f565b610baf565b604051610270959493929190612f47565b60405180910390f35b34801561028557600080fd5b506102a0600480360381019061029b9190612b5f565b610da9565b6040516102b296959493929190612c87565b60405180910390f35b3480156102c757600080fd5b506102d0610f39565b6040516102dd9190612cef565b60405180910390f35b3480156102f257600080fd5b5061030d60048036038101906103089190612b5f565b610f3f565b60405161031d9493929190612fa1565b60405180910390f35b610340600480360381019061033b919061314e565b61124c565b005b34801561034e57600080fd5b5061036960048036038101906103649190613239565b611410565b005b34801561037757600080fd5b50610392600480360381019061038d9190613239565b61159d565b60405161039f9190613279565b60405180910390f35b3480156103b457600080fd5b506103cf60048036038101906103ca9190612b5f565b6117e9565b6040516103dc91906133ee565b60405180910390f35b3480156103f157600080fd5b5061040c60048036038101906104079190612b5f565b611a5a565b6040516104199190612cef565b60405180910390f35b61043c60048036038101906104379190613410565b611a7a565b005b61045860048036038101906104539190613410565b611ca2565b005b34801561046657600080fd5b50610481600480360381019061047c9190612b5f565b611e87565b604051610494979695949392919061347f565b60405180910390f35b3480156104a957600080fd5b506104c460048036038101906104bf9190612b5f565b612119565b6040516104d19190612cef565b60405180910390f35b3480156104e657600080fd5b5061050160048036038101906104fc9190612b5f565b612139565b60405161050e919061370b565b60405180910390f35b34801561052357600080fd5b5061053e60048036038101906105399190612f07565b61241d565b60405161054b9190612cef565b60405180910390f35b34801561056057600080fd5b5061056961244e565b6040516105769190612cef565b60405180910390f35b34801561058b57600080fd5b506105a660048036038101906105a19190612b5f565b612454565b6040516105b7959493929190612f47565b60405180910390f35b6000600282815481106105d6576105d561372d565b5b906000526020600020906006020160020160009054906101000a900473ffffffffffffffffffffffffffffffffffffffff1690506000600283815481106106205761061f61372d565b5b906000526020600020906006020160010154905060006001828154811061064a5761064961372d565b5b906000526020600020906006020160020160009054906101000a900473ffffffffffffffffffffffffffffffffffffffff1690508273ffffffffffffffffffffffffffffffffffffffff163373ffffffffffffffffffffffffffffffffffffffff1614806106e357508073ffffffffffffffffffffffffffffffffffffffff163373ffffffffffffffffffffffffffffffffffffffff16145b610722576040517f08c379a0000000000000000000000000000000000000000000000000000000008152600401610719906137ce565b60405180910390fd5b6001600285815481106107385761073761372d565b5b906000526020600020906006020160050160006101000a81548160ff02191690831515021790555050505050565b6002818154811061077657600080fd5b90600052602060002090600602016000915090508060000154908060010154908060020160009054906101000a900473ffffffffffffffffffffffffffffffffffffffff16908060030180546107cb9061381d565b80601f01602080910402602001604051908101604052809291908181526020018280546107f79061381d565b80156108445780601f1061081957610100808354040283529160200191610844565b820191906000526020600020905b81548152906001019060200180831161082757829003601f168201915b5050505050908060040154908060050160009054906101000a900460ff16905086565b60035481565b60606000805480602002602001604051908101604052809291908181526020016000905b82821015610b7557838290600052602060002090600702016040518060e0016040529081600082015481526020016001820160009054906101000a900473ffffffffffffffffffffffffffffffffffffffff1673ffffffffffffffffffffffffffffffffffffffff1673ffffffffffffffffffffffffffffffffffffffff1681526020016002820180546109249061381d565b80601f01602080910402602001604051908101604052809291908181526020018280546109509061381d565b801561099d5780601f106109725761010080835404028352916020019161099d565b820191906000526020600020905b81548152906001019060200180831161098057829003601f168201915b505050505081526020016003820180546109b69061381d565b80601f01602080910402602001604051908101604052809291908181526020018280546109e29061381d565b8015610a2f5780601f10610a0457610100808354040283529160200191610a2f565b820191906000526020600020905b815481529060010190602001808311610a1257829003601f168201915b50505050508152602001600482018054610a489061381d565b80601f0160208091040260200160405190810160405280929190818152602001828054610a749061381d565b8015610ac15780601f10610a9657610100808354040283529160200191610ac1565b820191906000526020600020905b815481529060010190602001808311610aa457829003601f168201915b50505050508152602001600582018054610ada9061381d565b80601f0160208091040260200160405190810160405280929190818152602001828054610b069061381d565b8015610b535780601f10610b2857610100808354040283529160200191610b53565b820191906000526020600020905b815481529060010190602001808311610b3657829003601f168201915b5050505050815260200160068201548152505081526020019060010190610891565b50505050905090565b60066020528160005260406000208181548110610b9a57600080fd5b90600052602060002001600091509150505481565b6000806000606060008060018781548110610bcd57610bcc61372d565b5b90600052602060002090600602016040518060c001604052908160008201548152602001600182015481526020016002820160009054906101000a900473ffffffffffffffffffffffffffffffffffffffff1673ffffffffffffffffffffffffffffffffffffffff1673ffffffffffffffffffffffffffffffffffffffff168152602001600382018054610c609061381d565b80601f0160208091040260200160405190810160405280929190818152602001828054610c8c9061381d565b8015610cd95780601f10610cae57610100808354040283529160200191610cd9565b820191906000526020600020905b815481529060010190602001808311610cbc57829003601f168201915b505050505081526020016004820154815260200160058201805480602002602001604051908101604052809291908181526020018280548015610d7157602002820191906000526020600020905b8160009054906101000a900473ffffffffffffffffffffffffffffffffffffffff1673ffffffffffffffffffffffffffffffffffffffff1681526020019060010190808311610d27575b505050505081525050905080600001518160200151826040015183606001518460800151955095509550955095505091939590929450565b60008060006060600080600060028881548110610dc957610dc861372d565b5b90600052602060002090600602016040518060c001604052908160008201548152602001600182015481526020016002820160009054906101000a900473ffffffffffffffffffffffffffffffffffffffff1673ffffffffffffffffffffffffffffffffffffffff1673ffffffffffffffffffffffffffffffffffffffff168152602001600382018054610e5c9061381d565b80601f0160208091040260200160405190810160405280929190818152602001828054610e889061381d565b8015610ed55780601f10610eaa57610100808354040283529160200191610ed5565b820191906000526020600020905b815481529060010190602001808311610eb857829003601f168201915b50505050508152602001600482015481526020016005820160009054906101000a900460ff1615151515815250509050806000015181602001518260400151836060015184608001518560a001519650965096509650965096505091939550919395565b60055481565b600080606060008060008681548110610f5b57610f5a61372d565b5b90600052602060002090600702016040518060e0016040529081600082015481526020016001820160009054906101000a900473ffffffffffffffffffffffffffffffffffffffff1673ffffffffffffffffffffffffffffffffffffffff1673ffffffffffffffffffffffffffffffffffffffff168152602001600282018054610fe49061381d565b80601f01602080910402602001604051908101604052809291908181526020018280546110109061381d565b801561105d5780601f106110325761010080835404028352916020019161105d565b820191906000526020600020905b81548152906001019060200180831161104057829003601f168201915b505050505081526020016003820180546110769061381d565b80601f01602080910402602001604051908101604052809291908181526020018280546110a29061381d565b80156110ef5780601f106110c4576101008083540402835291602001916110ef565b820191906000526020600020905b8154815290600101906020018083116110d257829003601f168201915b505050505081526020016004820180546111089061381d565b80601f01602080910402602001604051908101604052809291908181526020018280546111349061381d565b80156111815780601f1061115657610100808354040283529160200191611181565b820191906000526020600020905b81548152906001019060200180831161116457829003601f168201915b5050505050815260200160058201805461119a9061381d565b80601f01602080910402602001604051908101604052809291908181526020018280546111c69061381d565b80156112135780601f106111e857610100808354040283529160200191611213565b820191906000526020600020905b8154815290600101906020018083116111f657829003601f168201915b5050505050815260200160068201548152505090508060000151816020015182604001518360c001519450945094509450509193509193565b6003543414611290576040517f08c379a0000000000000000000000000000000000000000000000000000000008152600401611287906138c0565b60405180910390fd5b60008080549050905060006040518060e001604052808381526020013373ffffffffffffffffffffffffffffffffffffffff1681526020018881526020018781526020018681526020018581526020014281525090806001815401808255809150506001900390600052602060002090600702016000909190919091506000820151816000015560208201518160010160006101000a81548173ffffffffffffffffffffffffffffffffffffffff021916908373ffffffffffffffffffffffffffffffffffffffff16021790555060408201518160020190816113739190613a8c565b5060608201518160030190816113899190613a8c565b50608082015181600401908161139f9190613a8c565b5060a08201518160050190816113b59190613a8c565b5060c0820151816006015550506113cb82612542565b7f3aefb7fd8dedf3fcf9ef31cd0486a990d7a20e71e66b1f82e5111a0cb2513f2d813388426040516114009493929190612fa1565b60405180910390a1505050505050565b600182815481106114245761142361372d565b5b906000526020600020906006020160020160009054906101000a900473ffffffffffffffffffffffffffffffffffffffff1673ffffffffffffffffffffffffffffffffffffffff163373ffffffffffffffffffffffffffffffffffffffff16146114c3576040517f08c379a00000000000000000000000000000000000000000000000000000000081526004016114ba90613bd0565b60405180910390fd5b600015156114d1838361159d565b151514611513576040517f08c379a000000000000000000000000000000000000000000000000000000000815260040161150a90613c3c565b60405180910390fd5b600182815481106115275761152661372d565b5b9060005260206000209060060201600501819080600181540180825580915050600190039060005260206000200160009091909190916101000a81548173ffffffffffffffffffffffffffffffffffffffff021916908373ffffffffffffffffffffffffffffffffffffffff1602179055505050565b600080600184815481106115b4576115b361372d565b5b90600052602060002090600602016040518060c001604052908160008201548152602001600182015481526020016002820160009054906101000a900473ffffffffffffffffffffffffffffffffffffffff1673ffffffffffffffffffffffffffffffffffffffff1673ffffffffffffffffffffffffffffffffffffffff1681526020016003820180546116479061381d565b80601f01602080910402602001604051908101604052809291908181526020018280546116739061381d565b80156116c05780601f10611695576101008083540402835291602001916116c0565b820191906000526020600020905b8154815290600101906020018083116116a357829003601f168201915b50505050508152602001600482015481526020016005820180548060200260200160405190810160405280929190818152602001828054801561175857602002820191906000526020600020905b8160009054906101000a900473ffffffffffffffffffffffffffffffffffffffff1673ffffffffffffffffffffffffffffffffffffffff168152602001906001019080831161170e575b505050505081525050905060005b8160a00151518110156117dc578373ffffffffffffffffffffffffffffffffffffffff168260a0015182815181106117a1576117a061372d565b5b602002602001015173ffffffffffffffffffffffffffffffffffffffff16036117cf576001925050506117e3565b8080600101915050611766565b5060009150505b92915050565b606060006007600084815260200190815260200160002080548060200260200160405190810160405280929190818152602001828054801561184a57602002820191906000526020600020905b815481526020019060010190808311611836575b505050505090506000815167ffffffffffffffff81111561186e5761186d612ff7565b5b6040519080825280602002602001820160405280156118a757816020015b6118946129d4565b81526020019060019003908161188c5790505b50905060005b8251811015611a4f57600060028483815181106118cd576118cc61372d565b5b6020026020010151815481106118e6576118e561372d565b5b90600052602060002090600602016040518060c001604052908160008201548152602001600182015481526020016002820160009054906101000a900473ffffffffffffffffffffffffffffffffffffffff1673ffffffffffffffffffffffffffffffffffffffff1673ffffffffffffffffffffffffffffffffffffffff1681526020016003820180546119799061381d565b80601f01602080910402602001604051908101604052809291908181526020018280546119a59061381d565b80156119f25780601f106119c7576101008083540402835291602001916119f2565b820191906000526020600020905b8154815290600101906020018083116119d557829003601f168201915b50505050508152602001600482015481526020016005820160009054906101000a900460ff161515151581525050905080838381518110611a3657611a3561372d565b5b60200260200101819052505080806001019150506118ad565b508092505050919050565b600060076000838152602001908152602001600020805490509050919050565b6004543414611abe576040517f08c379a0000000000000000000000000000000000000000000000000000000008152600401611ab590613cce565b60405180910390fd5b6000600180549050905060016040518060c001604052808381526020018681526020013373ffffffffffffffffffffffffffffffffffffffff168152602001858152602001428152602001600067ffffffffffffffff811115611b2457611b23612ff7565b5b604051908082528060200260200182016040528015611b525781602001602082028036833780820191505090505b508152509080600181540180825580915050600190039060005260206000209060060201600090919091909150600082015181600001556020820151816001015560408201518160020160006101000a81548173ffffffffffffffffffffffffffffffffffffffff021916908373ffffffffffffffffffffffffffffffffffffffff1602179055506060820151816003019081611bef9190613a8c565b506080820151816004015560a0820151816005019080519060200190611c16929190612a22565b50505060066000858152602001908152602001600020819080600181540180825580915050600190039060005260206000200160009091909190915055611c5d848361261a565b7fd69d6b07c592e9e941b5fb132eb006489a20a1453231fb9facb95ff4f303235d8133858742604051611c94959493929190613cee565b60405180910390a150505050565b6005543414611ce6576040517f08c379a0000000000000000000000000000000000000000000000000000000008152600401611cdd90613dba565b60405180910390fd5b6000600280549050905060026040518060c001604052808381526020018681526020013373ffffffffffffffffffffffffffffffffffffffff168152602001858152602001428152602001600015158152509080600181540180825580915050600190039060005260206000209060060201600090919091909150600082015181600001556020820151816001015560408201518160020160006101000a81548173ffffffffffffffffffffffffffffffffffffffff021916908373ffffffffffffffffffffffffffffffffffffffff1602179055506060820151816003019081611dd19190613a8c565b506080820151816004015560a08201518160050160006101000a81548160ff021916908315150217905550505060076000858152602001908152602001600020819080600181540180825580915050600190039060005260206000200160009091909190915055611e428483612791565b7f9fcb19e60f699236a745fa8a0fc59ec21c36952f3230d3f494e5d3530cdbdb738133858742604051611e79959493929190613cee565b60405180910390a150505050565b60008181548110611e9757600080fd5b90600052602060002090600702016000915090508060000154908060010160009054906101000a900473ffffffffffffffffffffffffffffffffffffffff1690806002018054611ee69061381d565b80601f0160208091040260200160405190810160405280929190818152602001828054611f129061381d565b8015611f5f5780601f10611f3457610100808354040283529160200191611f5f565b820191906000526020600020905b815481529060010190602001808311611f4257829003601f168201915b505050505090806003018054611f749061381d565b80601f0160208091040260200160405190810160405280929190818152602001828054611fa09061381d565b8015611fed5780601f10611fc257610100808354040283529160200191611fed565b820191906000526020600020905b815481529060010190602001808311611fd057829003601f168201915b5050505050908060040180546120029061381d565b80601f016020809104026020016040519081016040528092919081815260200182805461202e9061381d565b801561207b5780601f106120505761010080835404028352916020019161207b565b820191906000526020600020905b81548152906001019060200180831161205e57829003601f168201915b5050505050908060050180546120909061381d565b80601f01602080910402602001604051908101604052809291908181526020018280546120bc9061381d565b80156121095780601f106120de57610100808354040283529160200191612109565b820191906000526020600020905b8154815290600101906020018083116120ec57829003601f168201915b5050505050908060060154905087565b600060066000838152602001908152602001600020805490509050919050565b606060006006600084815260200190815260200160002080548060200260200160405190810160405280929190818152602001828054801561219a57602002820191906000526020600020905b815481526020019060010190808311612186575b505050505090506000815167ffffffffffffffff8111156121be576121bd612ff7565b5b6040519080825280602002602001820160405280156121f757816020015b6121e4612aac565b8152602001906001900390816121dc5790505b50905060005b8251811015612412576000600184838151811061221d5761221c61372d565b5b6020026020010151815481106122365761223561372d565b5b90600052602060002090600602016040518060c001604052908160008201548152602001600182015481526020016002820160009054906101000a900473ffffffffffffffffffffffffffffffffffffffff1673ffffffffffffffffffffffffffffffffffffffff1673ffffffffffffffffffffffffffffffffffffffff1681526020016003820180546122c99061381d565b80601f01602080910402602001604051908101604052809291908181526020018280546122f59061381d565b80156123425780601f1061231757610100808354040283529160200191612342565b820191906000526020600020905b81548152906001019060200180831161232557829003601f168201915b5050505050815260200160048201548152602001600582018054806020026020016040519081016040528092919081815260200182805480156123da57602002820191906000526020600020905b8160009054906101000a900473ffffffffffffffffffffffffffffffffffffffff1673ffffffffffffffffffffffffffffffffffffffff1681526020019060010190808311612390575b5050505050815250509050808383815181106123f9576123f861372d565b5b60200260200101819052505080806001019150506121fd565b508092505050919050565b6007602052816000526040600020818154811061243957600080fd5b90600052602060002001600091509150505481565b60045481565b6001818154811061246457600080fd5b90600052602060002090600602016000915090508060000154908060010154908060020160009054906101000a900473ffffffffffffffffffffffffffffffffffffffff16908060030180546124b99061381d565b80601f01602080910402602001604051908101604052809291908181526020018280546124e59061381d565b80156125325780601f1061250757610100808354040283529160200191612532565b820191906000526020600020905b81548152906001019060200180831161251557829003601f168201915b5050505050908060040154905085565b476003541115612587576040517f08c379a000000000000000000000000000000000000000000000000000000000815260040161257e90613e4c565b60405180910390fd5b600073ffffffffffffffffffffffffffffffffffffffff168173ffffffffffffffffffffffffffffffffffffffff16146126175760008190508073ffffffffffffffffffffffffffffffffffffffff166108fc60046003546125e99190613e9b565b9081150290604051600060405180830381858888f19350505050158015612614573d6000803e3d6000fd5b50505b50565b47600454111561265f576040517f08c379a000000000000000000000000000000000000000000000000000000000815260040161265690613e4c565b60405180910390fd5b60008083815481106126745761267361372d565b5b906000526020600020906007020160010160009054906101000a900473ffffffffffffffffffffffffffffffffffffffff1690508073ffffffffffffffffffffffffffffffffffffffff166108fc60026004546126d19190613e9b565b9081150290604051600060405180830381858888f193505050501580156126fc573d6000803e3d6000fd5b50600073ffffffffffffffffffffffffffffffffffffffff168273ffffffffffffffffffffffffffffffffffffffff161461278c5760008290508073ffffffffffffffffffffffffffffffffffffffff166108fc6004805461275e9190613e9b565b9081150290604051600060405180830381858888f19350505050158015612789573d6000803e3d6000fd5b50505b505050565b4760055411156127d6576040517f08c379a00000000000000000000000000000000000000000000000000000000081526004016127cd90613e4c565b60405180910390fd5b6000600183815481106127ec576127eb61372d565b5b906000526020600020906006020160010154905060008082815481106128155761281461372d565b5b906000526020600020906007020160010160009054906101000a900473ffffffffffffffffffffffffffffffffffffffff1690508073ffffffffffffffffffffffffffffffffffffffff166108fc60046005546128729190613e9b565b9081150290604051600060405180830381858888f1935050505015801561289d573d6000803e3d6000fd5b506000600185815481106128b4576128b361372d565b5b906000526020600020906006020160020160009054906101000a900473ffffffffffffffffffffffffffffffffffffffff1690508073ffffffffffffffffffffffffffffffffffffffff166108fc60046005546129119190613e9b565b9081150290604051600060405180830381858888f1935050505015801561293c573d6000803e3d6000fd5b50600073ffffffffffffffffffffffffffffffffffffffff168473ffffffffffffffffffffffffffffffffffffffff16146129cd5760008490508073ffffffffffffffffffffffffffffffffffffffff166108fc600460055461299f9190613e9b565b9081150290604051600060405180830381858888f193505050501580156129ca573d6000803e3d6000fd5b50505b5050505050565b6040518060c001604052806000815260200160008152602001600073ffffffffffffffffffffffffffffffffffffffff16815260200160608152602001600081526020016000151581525090565b828054828255906000526020600020908101928215612a9b579160200282015b82811115612a9a5782518260006101000a81548173ffffffffffffffffffffffffffffffffffffffff021916908373ffffffffffffffffffffffffffffffffffffffff16021790555091602001919060010190612a42565b5b509050612aa89190612af8565b5090565b6040518060c001604052806000815260200160008152602001600073ffffffffffffffffffffffffffffffffffffffff1681526020016060815260200160008152602001606081525090565b5b80821115612b11576000816000905550600101612af9565b5090565b6000604051905090565b600080fd5b600080fd5b6000819050919050565b612b3c81612b29565b8114612b4757600080fd5b50565b600081359050612b5981612b33565b92915050565b600060208284031215612b7557612b74612b1f565b5b6000612b8384828501612b4a565b91505092915050565b612b9581612b29565b82525050565b600073ffffffffffffffffffffffffffffffffffffffff82169050919050565b6000612bc682612b9b565b9050919050565b612bd681612bbb565b82525050565b600081519050919050565b600082825260208201905092915050565b60005b83811015612c16578082015181840152602081019050612bfb565b60008484015250505050565b6000601f19601f8301169050919050565b6000612c3e82612bdc565b612c488185612be7565b9350612c58818560208601612bf8565b612c6181612c22565b840191505092915050565b60008115159050919050565b612c8181612c6c565b82525050565b600060c082019050612c9c6000830189612b8c565b612ca96020830188612b8c565b612cb66040830187612bcd565b8181036060830152612cc88186612c33565b9050612cd76080830185612b8c565b612ce460a0830184612c78565b979650505050505050565b6000602082019050612d046000830184612b8c565b92915050565b600081519050919050565b600082825260208201905092915050565b6000819050602082019050919050565b612d3f81612b29565b82525050565b612d4e81612bbb565b82525050565b600082825260208201905092915050565b6000612d7082612bdc565b612d7a8185612d54565b9350612d8a818560208601612bf8565b612d9381612c22565b840191505092915050565b600060e083016000830151612db66000860182612d36565b506020830151612dc96020860182612d45565b5060408301518482036040860152612de18282612d65565b91505060608301518482036060860152612dfb8282612d65565b91505060808301518482036080860152612e158282612d65565b91505060a083015184820360a0860152612e2f8282612d65565b91505060c0830151612e4460c0860182612d36565b508091505092915050565b6000612e5b8383612d9e565b905092915050565b6000602082019050919050565b6000612e7b82612d0a565b612e858185612d15565b935083602082028501612e9785612d26565b8060005b85811015612ed35784840389528151612eb48582612e4f565b9450612ebf83612e63565b925060208a01995050600181019050612e9b565b50829750879550505050505092915050565b60006020820190508181036000830152612eff8184612e70565b905092915050565b60008060408385031215612f1e57612f1d612b1f565b5b6000612f2c85828601612b4a565b9250506020612f3d85828601612b4a565b9150509250929050565b600060a082019050612f5c6000830188612b8c565b612f696020830187612b8c565b612f766040830186612bcd565b8181036060830152612f888185612c33565b9050612f976080830184612b8c565b9695505050505050565b6000608082019050612fb66000830187612b8c565b612fc36020830186612bcd565b8181036040830152612fd58185612c33565b9050612fe46060830184612b8c565b95945050505050565b600080fd5b600080fd5b7f4e487b7100000000000000000000000000000000000000000000000000000000600052604160045260246000fd5b61302f82612c22565b810181811067ffffffffffffffff8211171561304e5761304d612ff7565b5b80604052505050565b6000613061612b15565b905061306d8282613026565b919050565b600067ffffffffffffffff82111561308d5761308c612ff7565b5b61309682612c22565b9050602081019050919050565b82818337600083830152505050565b60006130c56130c084613072565b613057565b9050828152602081018484840111156130e1576130e0612ff2565b5b6130ec8482856130a3565b509392505050565b600082601f83011261310957613108612fed565b5b81356131198482602086016130b2565b91505092915050565b61312b81612bbb565b811461313657600080fd5b50565b60008135905061314881613122565b92915050565b600080600080600060a0868803121561316a57613169612b1f565b5b600086013567ffffffffffffffff81111561318857613187612b24565b5b613194888289016130f4565b955050602086013567ffffffffffffffff8111156131b5576131b4612b24565b5b6131c1888289016130f4565b945050604086013567ffffffffffffffff8111156131e2576131e1612b24565b5b6131ee888289016130f4565b935050606086013567ffffffffffffffff81111561320f5761320e612b24565b5b61321b888289016130f4565b925050608061322c88828901613139565b9150509295509295909350565b600080604083850312156132505761324f612b1f565b5b600061325e85828601612b4a565b925050602061326f85828601613139565b9150509250929050565b600060208201905061328e6000830184612c78565b92915050565b600081519050919050565b600082825260208201905092915050565b6000819050602082019050919050565b6132c981612c6c565b82525050565b600060c0830160008301516132e76000860182612d36565b5060208301516132fa6020860182612d36565b50604083015161330d6040860182612d45565b50606083015184820360608601526133258282612d65565b915050608083015161333a6080860182612d36565b5060a083015161334d60a08601826132c0565b508091505092915050565b600061336483836132cf565b905092915050565b6000602082019050919050565b600061338482613294565b61338e818561329f565b9350836020820285016133a0856132b0565b8060005b858110156133dc57848403895281516133bd8582613358565b94506133c88361336c565b925060208a019950506001810190506133a4565b50829750879550505050505092915050565b600060208201905081810360008301526134088184613379565b905092915050565b60008060006060848603121561342957613428612b1f565b5b600061343786828701612b4a565b935050602084013567ffffffffffffffff81111561345857613457612b24565b5b613464868287016130f4565b925050604061347586828701613139565b9150509250925092565b600060e082019050613494600083018a612b8c565b6134a16020830189612bcd565b81810360408301526134b38188612c33565b905081810360608301526134c78187612c33565b905081810360808301526134db8186612c33565b905081810360a08301526134ef8185612c33565b90506134fe60c0830184612b8c565b98975050505050505050565b600081519050919050565b600082825260208201905092915050565b6000819050602082019050919050565b600081519050919050565b600082825260208201905092915050565b6000819050602082019050919050565b600061356e8383612d45565b60208301905092915050565b6000602082019050919050565b600061359282613536565b61359c8185613541565b93506135a783613552565b8060005b838110156135d85781516135bf8882613562565b97506135ca8361357a565b9250506001810190506135ab565b5085935050505092915050565b600060c0830160008301516135fd6000860182612d36565b5060208301516136106020860182612d36565b5060408301516136236040860182612d45565b506060830151848203606086015261363b8282612d65565b91505060808301516136506080860182612d36565b5060a083015184820360a08601526136688282613587565b9150508091505092915050565b600061368183836135e5565b905092915050565b6000602082019050919050565b60006136a18261350a565b6136ab8185613515565b9350836020820285016136bd85613526565b8060005b858110156136f957848403895281516136da8582613675565b94506136e583613689565b925060208a019950506001810190506136c1565b50829750879550505050505092915050565b600060208201905081810360008301526137258184613696565b905092915050565b7f4e487b7100000000000000000000000000000000000000000000000000000000600052603260045260246000fd5b7f596f7520646f6e277420686176652061207065726d697373696f6e20746f206460008201527f656c657465207468697320706f73742e00000000000000000000000000000000602082015250565b60006137b8603083612be7565b91506137c38261375c565b604082019050919050565b600060208201905081810360008301526137e7816137ab565b9050919050565b7f4e487b7100000000000000000000000000000000000000000000000000000000600052602260045260246000fd5b6000600282049050600182168061383557607f821691505b602082108103613848576138476137ee565b5b50919050565b7f596f752073686f756c642070617920636f72726563742066656520746f20637260008201527f65617465206120626f6172642e00000000000000000000000000000000000000602082015250565b60006138aa602d83612be7565b91506138b58261384e565b604082019050919050565b600060208201905081810360008301526138d98161389d565b9050919050565b60008190508160005260206000209050919050565b60006020601f8301049050919050565b600082821b905092915050565b6000600883026139427fffffffffffffffffffffffffffffffffffffffffffffffffffffffffffffffff82613905565b61394c8683613905565b95508019841693508086168417925050509392505050565b6000819050919050565b600061398961398461397f84612b29565b613964565b612b29565b9050919050565b6000819050919050565b6139a38361396e565b6139b76139af82613990565b848454613912565b825550505050565b600090565b6139cc6139bf565b6139d781848461399a565b505050565b5b818110156139fb576139f06000826139c4565b6001810190506139dd565b5050565b601f821115613a4057613a11816138e0565b613a1a846138f5565b81016020851015613a29578190505b613a3d613a35856138f5565b8301826139dc565b50505b505050565b600082821c905092915050565b6000613a6360001984600802613a45565b1980831691505092915050565b6000613a7c8383613a52565b9150826002028217905092915050565b613a9582612bdc565b67ffffffffffffffff811115613aae57613aad612ff7565b5b613ab8825461381d565b613ac38282856139ff565b600060209050601f831160018114613af65760008415613ae4578287015190505b613aee8582613a70565b865550613b56565b601f198416613b04866138e0565b60005b82811015613b2c57848901518255600182019150602085019450602081019050613b07565b86831015613b495784890151613b45601f891682613a52565b8355505b6001600288020188555050505b505050505050565b7f4f6e6c792074686520746872656164206f776e65722063616e2062616e20757360008201527f6572732e00000000000000000000000000000000000000000000000000000000602082015250565b6000613bba602483612be7565b9150613bc582613b5e565b604082019050919050565b60006020820190508181036000830152613be981613bad565b9050919050565b7f546865205573657220697320616c72656164792062616e6e65642e0000000000600082015250565b6000613c26601b83612be7565b9150613c3182613bf0565b602082019050919050565b60006020820190508181036000830152613c5581613c19565b9050919050565b7f596f752073686f756c642070617920636f72726563742066656520746f20637260008201527f656174652061207468726561642e000000000000000000000000000000000000602082015250565b6000613cb8602e83612be7565b9150613cc382613c5c565b604082019050919050565b60006020820190508181036000830152613ce781613cab565b9050919050565b600060a082019050613d036000830188612b8c565b613d106020830187612bcd565b8181036040830152613d228186612c33565b9050613d316060830185612b8c565b613d3e6080830184612b8c565b9695505050505050565b7f596f752073686f756c642070617920636f72726563742066656520746f20637260008201527f65617465206120706f73742e0000000000000000000000000000000000000000602082015250565b6000613da4602c83612be7565b9150613daf82613d48565b604082019050919050565b60006020820190508181036000830152613dd381613d97565b9050919050565b7f54686520616d6f756e7420746f2064697374726962757465206973206e6f742060008201527f656e6f7567682e00000000000000000000000000000000000000000000000000602082015250565b6000613e36602783612be7565b9150613e4182613dda565b604082019050919050565b60006020820190508181036000830152613e6581613e29565b9050919050565b7f4e487b7100000000000000000000000000000000000000000000000000000000600052601260045260246000fd5b6000613ea682612b29565b9150613eb183612b29565b925082613ec157613ec0613e6c565b5b82820490509291505056fea2646970667358221220dc0e54e43319066fd607cbd3c8ee0bc1ab66c617cc0426b1128657c8462bc53264736f6c634300081b0033",
  "linkReferences": {},
  "deployedLinkReferences": {}
}